02RETORNO01COBRANCA       924800257892        ASSOC RELIGIOSAS INSTR CRISTA 341BANCO ITAU S.A.18101801600BPI00092181018                                                                                                                                                                                                                                                                                   000001
10210847762001315924800257892        001100000000000000123241701232417            109012324173             I02181018000001038101232417            05111800000001422783410361601000000000000000000000000000000000000000000000000000000000000000000000000000000000000000000000000000000430000000000000         00000000000000000000000ALISSON CESAR NUNES DA PAZ                                            000002
10210847762001315924800257892        001100000000000000123465901234659            109012346598             I02181018000001039301234659            05111800000001422783410361601000000000000000000000000000000000000000000000000000000000000000000000000000000000000000000000000000000430000000000000         00000000000000000000000ERICK DA COSTA LIRA                                                   000003
10210847762001315924800257892        001100000000000000124115101241151            109012411517             I02181018000211208801241151            05111800000001720003410361601000000000000000000000000000000000000000000000000000000000000000000000000000000000000000000000000000000520000000000000         00000000000000000000000MARIA GRACAS OLIV MAG HENR                                            000004
10210847762001315924800257892        001100000000000000125048601250486            109012504865             I02181018000212282201250486            05111800000001639003410361601000000000000000000000000000000000000000000000000000000000000000000000000000000000000000000000000000000490000000000000         00000000000000000000000FLAVIO VIEIRA GAD ALBUQUERQUE                                         000005
10210847762001315924800257892        001100000000000000125940601259406            109012594064             I02181018000001050701259406            05111800000001172373410361601000000000000000000000000000000000000000000000000000000000000000000000000000000000000000000000000000000350000000000000         00000000000000000000000LUCIOLA KARLA OLIV BELTR WAKED                                        000006
10210847762001315924800257892        001100000000000000126179501261795            109012617956             I02181018000213443701261795            05111800000001580503410361601000000000000000000000000000000000000000000000000000000000000000000000000000000000000000000000000000000480000000000000         00000000000000000000000MARCONDES HOLANDA CAVALCANTI                                          000007
10210847762001315924800257892        001100000000000000127035501270355            109012703558             I02181018000214421301270355            05111800000001639003410361601000000000000000000000000000000000000000000000000000000000000000000000000000000000000000000000000000000490000000000000         00000000000000000000000SILVIA REGINA DE MORAIS                                               000008
10210847762001315924800257892        001100000000000000127158101271581            109012715818             I02181018000214590301271581            20111800000001639003410361601000000000000000000000000000000000000000000000000000000000000000000000000000000000000000000000000000000490000000000000         00000000000000000000000BRUNO TAVARES ALVES DE MELO                                           000009
10210847762001315924800257892        001100000000000000127159301271593            109012715933             I02181018000214591701271593            05111800000001720003410361601000000000000000000000000000000000000000000000000000000000000000000000000000000000000000000000000000000520000000000000         00000000000000000000000FLAVIO VIEIRA GAD ALBUQUERQUE                                         000010
10210847762001315924800257892        001100000000000000127170101271701            109012717012             I02181018000214610901271701            05111800000001580503410361601000000000000000000000000000000000000000000000000000000000000000000000000000000000000000000000000000000480000000000000         00000000000000000000000RODRIGO GOMES FERREIRA                                                000011
10210847762001315924800257892        001100000000000000127171101271711            109012717111             I02181018000214612001271711            05111800000001580503410361601000000000000000000000000000000000000000000000000000000000000000000000000000000000000000000000000000000480000000000000         00000000000000000000000GUSTAVO FERREIRA SANTOS                                               000012
10210847762001315924800257892        001100000000000000127172201271722            109012717228             I02181018000214613901271722            05111800000001580503410361601000000000000000000000000000000000000000000000000000000000000000000000000000000000000000000000000000000480000000000000         00000000000000000000000AMELIA CERQUEIRA JUDICE SANTOS                                        000013
10210847762001315924800257892        001100000000000000127173301271733            109012717335             I02181018000214615001271733            05111800000001580503410361601000000000000000000000000000000000000000000000000000000000000000000000000000000000000000000000000000000480000000000000         00000000000000000000000HUGO AND COELHO VERAS SOUSA                                           000014
10210847762001315924800257892        001100000000000000127175501271755            109012717558             I02181018000214617501271755            05111800000001639003410361601000000000000000000000000000000000000000000000000000000000000000000000000000000000000000000000000000000490000000000000         00000000000000000000000ANGELA CAVALCANTI MELO                                                000015
10210847762001315924800257892        001100000000000000127178401271784            109012717848             I02181018000214623401271784            05111800000002090003410361601000000000000000000000000000000000000000000000000000000000000000000000000000000000000000000000000000000630000000000000         00000000000000000000000EVA VALENCA PIO DOS SANTOS                                            000016
10210847762001315924800257892        001100000000000000127551101275511            109012755111             I02181018000001087201275511            05111800000000626023410361601000000000000000000000000000000000000000000000000000000000000000000000000000000000000000000000000000000190000000000000         00000000000000000000000LUCIANA PAULA BARROCA                                                 000017
10210847762001315924800257892        001100000000000000127826101278261            109012782610             I02181018000215340501278261            05111800000001580503410361601000000000000000000000000000000000000000000000000000000000000000000000000000000000000000000000000000000480000000000000         00000000000000000000000ALOYSIO SOARES AZEVEDO LEITE                                          000018
10210847762001315924800257892        001100000000000000127830001278300            109012783006             I02181018000215345701278300            20111800000001639003410361601000000000000000000000000000000000000000000000000000000000000000000000000000000000000000000000000000000490000000000000         00000000000000000000000ADRIANA MARIA BEZ LINS PEREIRA                                        000019
10210847762001315924800257892        001100000000000000127831101278311            109012783113             I02181018000215347401278311            05111800000001639003410361601000000000000000000000000000000000000000000000000000000000000000000000000000000000000000000000000000000490000000000000         00000000000000000000000EDUARDO HENR CARVALHO BARROS                                          000020
10210847762001315924800257892        001100000000000000128027501280275            109012802756             I02181018000215605401280275            05111800000001580503410361601000000000000000000000000000000000000000000000000000000000000000000000000000000000000000000000000000000480000000000000         00000000000000000000000LEONARDO VAZ OLIVEIRA LUCENA                                          000021
10210847762001315924800257892        001100000000000000128028601280286            109012802863             I02181018000215606501280286            12111800000001580503410361601000000000000000000000000000000000000000000000000000000000000000000000000000000000000000000000000000000480000000000000         00000000000000000000000LUCIANA MAIA GALVAO DE ANDRADE                                        000022
10210847762001315924800257892        001100000000000000128029701280297            109012802970             I02181018000215607701280297            12111800000002090003410361601000000000000000000000000000000000000000000000000000000000000000000000000000000000000000000000000000000630000000000000         00000000000000000000000ANGELO MARTINS CASTRO                                                 000023
10210847762001315924800257892        001100000000000000129088601290886            109012908868             I02181018000216718601290886            20111800000001580503410361601000000000000000000000000000000000000000000000000000000000000000000000000000000000000000000000000000000480000000000000         00000000000000000000000EDUARDO JOSE SOUTO BARROS                                             000024
10210847762001315924800257892        001100000000000000129747001297470            109012974704             I02181018000217496801297470            05111800000001580503410361601000000000000000000000000000000000000000000000000000000000000000000000000000000000000000000000000000000480000000000000         00000000000000000000000TIBERIO BATISTA DE MEDEIROS                                           000025
10210847762001315924800257892        001100000000000000129755001297550            109012975503             I02181018000213900701297550            05111800000001580503410361601000000000000000000000000000000000000000000000000000000000000000000000000000000000000000000000000000000480000000000000         00000000000000000000000LUIZ FELIPE ALBANEZ FALCAO                                            000026
10210847762001315924800257892        001100000000000000129757101297571            109012975719             I02181018000213895901297571            05111800000001639003410361601000000000000000000000000000000000000000000000000000000000000000000000000000000000000000000000000000000490000000000000         00000000000000000000000LUIZ FELIPE ALBANEZ FALCAO                                            000027
10210847762001315924800257892        001100000000000000129759801297598            109012975982             I02181018000217514401297598            05111800000001580503410361601000000000000000000000000000000000000000000000000000000000000000000000000000000000000000000000000000000480000000000000         00000000000000000000000ANDREIA RODR CORREIA ASSIS                                            000028
10210847762001315924800257892        001100000000000000129822001298220            109012982202             I02181018000217625401298220            12111800000001580503410361601000000000000000000000000000000000000000000000000000000000000000000000000000000000000000000000000000000480000000000000         00000000000000000000000FABIO HENR CAVALCANTI OLIVEIRA                                        000029
10210847762001315924800257892        001100000000000000129823201298232            109012982327             I02181018000217626801298232            05111800000001639003410361601000000000000000000000000000000000000000000000000000000000000000000000000000000000000000000000000000000490000000000000         00000000000000000000000RENATA AUXIL ALBUQ CAVALCANT                                          000030
10210847762001315924800257892        001100000000000000129826001298260            109012982608             I02181018000217629901298260            05111800000001639003410361601000000000000000000000000000000000000000000000000000000000000000000000000000000000000000000000000000000490000000000000         00000000000000000000000KLEBER COELHO DA SILVA                                                000031
10210847762001315924800257892        001100000000000000129832501298325            109012983259             I02181018000217639801298325            05111800000001639003410361601000000000000000000000000000000000000000000000000000000000000000000000000000000000000000000000000000000490000000000000         00000000000000000000000JOSE DIAS DA COSTA                                                    000032
10210847762001315924800257892        001100000000000000129833601298336            109012983366             I02181018000217641201298336            05111800000002090003410361601000000000000000000000000000000000000000000000000000000000000000000000000000000000000000000000000000000630000000000000         00000000000000000000000MANUELA SOARES PEDROZA                                                000033
10210847762001315924800257892        001100000000000000129834201298342            109012983424             I02181018000217642201298342            05111800000002090003410361601000000000000000000000000000000000000000000000000000000000000000000000000000000000000000000000000000000630000000000000         00000000000000000000000IZABELLE MAR DOUR COS ALBUQUER                                        000034
10210847762001315924800257892        001100000000000000129842801298428            109012984281             I02181018000217661401298428            05111800000002090003410361601000000000000000000000000000000000000000000000000000000000000000000000000000000000000000000000000000000630000000000000         00000000000000000000000PAULO RICARDO SPINELLI GOMES                                          000035
10210847762001315924800257892        001100000000000000132105701321057            109013210579             I02181018000220188801321057            20111800000001580503410361601000000000000000000000000000000000000000000000000000000000000000000000000000000000000000000000000000000480000000000000         00000000000000000000000SAULO AUGUSTO DE MELO HATEM                                           000036
10210847762001315924800257892        001100000000000000132120101321201            109013212013             I02181018000220230101321201            05111800000001639003410129701000000000000000000000000000000000000000000000000000000000000000000000000000000000000000000000000000000490000000000000         00000000000000000000000KASSIA REGINA AZEV OLIV VILAR                                         000037
10210847762001315924800257892        001100000000000000132121301321213            109013212138             I02181018000001154101321213            05111800000000896353410361601000000000000000000000000000000000000000000000000000000000000000000000000000000000000000000000000000000270000000000000         00000000000000000000000JOAO BOSCO BARRETO COUTO NETO                                         000038
10210847762001315924800257892        001100000000000000132122501321225            109013212252             I02181018000001155301321225            05111800000000896353410344201000000000000000000000000000000000000000000000000000000000000000000000000000000000000000000000000000000270000000000000         00000000000000000000000LAYSE DE MORAIS MILANEZ COUTO                                         000039
10210847762001315924800257892        001100000000000000132684501326845            109013268452             I02181018000221029501326845            05111800000001580503410361601000000000000000000000000000000000000000000000000000000000000000000000000000000000000000000000000000000480000000000000         00000000000000000000000PHILIP AMARAL SOUTO                                                   000040
10210847762001315924800257892        001100000000000000132685301326853            109013268536             I02181018000221030501326853            05111800000001720003410361601000000000000000000000000000000000000000000000000000000000000000000000000000000000000000000000000000000520000000000000         00000000000000000000000ANDREIA CARLA SOUZA GUEDES                                            000041
10210847762001315924800257892        001100000000000000132921101329211            109013292114             I02181018000221311101329211            05111800000001720003410361601000000000000000000000000000000000000000000000000000000000000000000000000000000000000000000000000000000520000000000000         00000000000000000000000SERGIO PEDRO XAVIER NETO                                              000042
10210847762001315924800257892        001100000000000000136941901369419            109013694194             I02181018000226390201369419            05111800000001580503410361601000000000000000000000000000000000000000000000000000000000000000000000000000000000000000000000000000000480000000000000         00000000000000000000000RAQUEL CARVALHO FERREIRA LIMA                                         000043
10210847762001315924800257892        001100000000000000136942401369424            109013694244             I02181018000226390701369424            05111800000001580503410361601000000000000000000000000000000000000000000000000000000000000000000000000000000000000000000000000000000480000000000000         00000000000000000000000NATASHA KATER PIRES                                                   000044
10210847762001315924800257892        001100000000000000138434701384347            109013843478             I02181018000001236001384347            05111800000000626023410361601000000000000000000000000000000000000000000000000000000000000000000000000000000000000000000000000000000190000000000000         00000000000000000000000PAULA ARAR BERTAO ANDRADE LIMA                                        000045
10210847762001315924800257892        001100000000000000141907601419076            109014190762             I02181018000232966401419076            12111800000001720003410361601000000000000000000000000000000000000000000000000000000000000000000000000000000000000000000000000000000520000000000000         00000000000000000000000ERMANO RODRIGUES DO NASCIMENTO                                        000046
10210847762001315924800257892        001100000000000000142408101424081            109014240815             I02181018000233477301424081            05111800000001580503410361601000000000000000000000000000000000000000000000000000000000000000000000000000000000000000000000000000000480000000000000         00000000000000000000000LEONARDO DE PETRIBU RIBEIRO                                           000047
10210847762001315924800257892        001100000000000000142408201424082            109014240823             I02181018000233477401424082            05111800000001580503410361601000000000000000000000000000000000000000000000000000000000000000000000000000000000000000000000000000000480000000000000         00000000000000000000000JULIANA DE CARVALHO SA                                                000048
10210847762001315924800257892        001100000000000000142408301424083            109014240831             I02181018000233477501424083            05111800000001580503410361601000000000000000000000000000000000000000000000000000000000000000000000000000000000000000000000000000000480000000000000         00000000000000000000000CRISTIANO GURGEL LOPES                                                000049
10210847762001315924800257892        001100000000000000142408401424084            109014240849             I02181018000233477601424084            05111800000001580503410361601000000000000000000000000000000000000000000000000000000000000000000000000000000000000000000000000000000480000000000000         00000000000000000000000KIRLEY ANDREA FALCAO LEITE                                            000050
10210847762001315924800257892        001100000000000000142408501424085            109014240856             I02181018000233477701424085            05111800000001580503410361601000000000000000000000000000000000000000000000000000000000000000000000000000000000000000000000000000000480000000000000         00000000000000000000000SERCIO FL BRAND MENEZ CORREIA                                         000051
10210847762001315924800257892        001100000000000000142408601424086            109014240864             I02181018000233477801424086            05111800000001580503410361601000000000000000000000000000000000000000000000000000000000000000000000000000000000000000000000000000000480000000000000         00000000000000000000000LAURA MARIA COSTA CARV ABREU                                          000052
10210847762001315924800257892        001100000000000000142408701424087            109014240872             I02181018000233477901424087            05111800000001580503410361601000000000000000000000000000000000000000000000000000000000000000000000000000000000000000000000000000000480000000000000         00000000000000000000000IVAN CAVALCANTI DA SILVA                                              000053
10210847762001315924800257892        001100000000000000142408801424088            109014240880             I02181018000233478001424088            05111800000001580503410361601000000000000000000000000000000000000000000000000000000000000000000000000000000000000000000000000000000480000000000000         00000000000000000000000FERNANDO FERN MENDONCA RIBEIRO                                        000054
10210847762001315924800257892        001100000000000000142408901424089            109014240898             I02181018000233478101424089            05111800000001580503410361601000000000000000000000000000000000000000000000000000000000000000000000000000000000000000000000000000000480000000000000         00000000000000000000000JOAO EUDES DE CARVALHO                                                000055
10210847762001315924800257892        001100000000000000142409001424090            109014240906             I02181018000233478201424090            05111800000001580503410361601000000000000000000000000000000000000000000000000000000000000000000000000000000000000000000000000000000480000000000000         00000000000000000000000JOANA CAVALCANTI DE LIMA                                              000056
10210847762001315924800257892        001100000000000000142409101424091            109014240914             I02181018000233478301424091            05111800000001580503410361601000000000000000000000000000000000000000000000000000000000000000000000000000000000000000000000000000000480000000000000         00000000000000000000000CARLOS MAGNO TORRES                                                   000057
10210847762001315924800257892        001100000000000000142409201424092            109014240922             I02181018000233478401424092            05111800000001580503410361601000000000000000000000000000000000000000000000000000000000000000000000000000000000000000000000000000000480000000000000         00000000000000000000000MARIA LIG PRIORI BARB TAVAR SA                                        000058
10210847762001315924800257892        001100000000000000142409301424093            109014240930             I02181018000233478501424093            05111800000001580503410361601000000000000000000000000000000000000000000000000000000000000000000000000000000000000000000000000000000480000000000000         00000000000000000000000CARLOS ALB CAVALCANTI MARTINS                                         000059
10210847762001315924800257892        001100000000000000142409401424094            109014240948             I02181018000233478601424094            20111800000001580503410361601000000000000000000000000000000000000000000000000000000000000000000000000000000000000000000000000000000480000000000000         00000000000000000000000MOISES ZARZAR CORREIA DE MELO                                         000060
10210847762001315924800257892        001100000000000000142409501424095            109014240955             I02181018000233478701424095            12111800000001580503410361601000000000000000000000000000000000000000000000000000000000000000000000000000000000000000000000000000000480000000000000         00000000000000000000000ELIZABETE CAVALCANTE                                                  000061
10210847762001315924800257892        001100000000000000142409601424096            109014240963             I02181018000233478801424096            05111800000001580503410361601000000000000000000000000000000000000000000000000000000000000000000000000000000000000000000000000000000480000000000000         00000000000000000000000DARLEY KLEBER TIMOT FLORENTINO                                        000062
10210847762001315924800257892        001100000000000000142409701424097            109014240971             I02181018000233478901424097            05111800000001580503410361601000000000000000000000000000000000000000000000000000000000000000000000000000000000000000000000000000000480000000000000         00000000000000000000000JOSE DIAS DA COSTA                                                    000063
10210847762001315924800257892        001100000000000000142409801424098            109014240989             I02181018000233479001424098            05111800000001580503410361601000000000000000000000000000000000000000000000000000000000000000000000000000000000000000000000000000000480000000000000         00000000000000000000000JOSE MAR PES BARR CAVALCANTI                                          000064
10210847762001315924800257892        001100000000000000142409901424099            109014240997             I02181018000233479101424099            05111800000001580503410874801000000000000000000000000000000000000000000000000000000000000000000000000000000000000000000000000000000480000000000000         00000000000000000000000PEDRO ANDRE CARVALHO ROSAS                                            000065
10210847762001315924800257892        001100000000000000142410001424100            109014241003             I02181018000233479201424100            05111800000001580503410361601000000000000000000000000000000000000000000000000000000000000000000000000000000000000000000000000000000480000000000000         00000000000000000000000EDUARDO RANIERE PESSOA AQUINO                                         000066
10210847762001315924800257892        001100000000000000142410101424101            109014241011             I02181018000233479301424101            05111800000001639003410361601000000000000000000000000000000000000000000000000000000000000000000000000000000000000000000000000000000490000000000000         00000000000000000000000ANA CRIST BEZ CAVALCANTI AVELL                                        000067
10210847762001315924800257892        001100000000000000142410201424102            109014241029             I02181018000233479401424102            05111800000001639003410361601000000000000000000000000000000000000000000000000000000000000000000000000000000000000000000000000000000490000000000000         00000000000000000000000ADRIANA MARIA DAS NEVES                                               000068
10210847762001315924800257892        001100000000000000142410301424103            109014241037             I02181018000233479501424103            05111800000001639003410361601000000000000000000000000000000000000000000000000000000000000000000000000000000000000000000000000000000490000000000000         00000000000000000000000HELIO CORDEIRO MANSO FILHO                                            000069
10210847762001315924800257892        001100000000000000142410401424104            109014241045             I02181018000233479601424104            05111800000001639003410361601000000000000000000000000000000000000000000000000000000000000000000000000000000000000000000000000000000490000000000000         00000000000000000000000DANIELLA BOLD CARN MONTEIRO                                           000070
10210847762001315924800257892        001100000000000000142410501424105            109014241052             I02181018000233479701424105            05111800000001639003410361601000000000000000000000000000000000000000000000000000000000000000000000000000000000000000000000000000000490000000000000         00000000000000000000000CRISTIANNE MACEDO DE FREITAS                                          000071
10210847762001315924800257892        001100000000000000142410601424106            109014241060             I02181018000233479801424106            05111800000001639003410361601000000000000000000000000000000000000000000000000000000000000000000000000000000000000000000000000000000490000000000000         00000000000000000000000LIVIA BRELAZ CALADO                                                   000072
10210847762001315924800257892        001100000000000000142410701424107            109014241078             I02181018000233479901424107            05111800000001639003410361601000000000000000000000000000000000000000000000000000000000000000000000000000000000000000000000000000000490000000000000         00000000000000000000000CRISTIANA MONTEIRO SILVA COSTA                                        000073
10210847762001315924800257892        001100000000000000142410801424108            109014241086             I02181018000233480001424108            05111800000001639003410874801000000000000000000000000000000000000000000000000000000000000000000000000000000000000000000000000000000490000000000000         00000000000000000000000ALINA FARIAS FRANCA OLIVEIRA                                          000074
10210847762001315924800257892        001100000000000000142410901424109            109014241094             I02181018000233480101424109            05111800000001639003410874801000000000000000000000000000000000000000000000000000000000000000000000000000000000000000000000000000000490000000000000         00000000000000000000000ALINA FARIAS FRANCA OLIVEIRA                                          000075
10210847762001315924800257892        001100000000000000142411001424110            109014241102             I02181018000233480201424110            05111800000001639003410361601000000000000000000000000000000000000000000000000000000000000000000000000000000000000000000000000000000490000000000000         00000000000000000000000JOSEMARIO FRANCA DE SOUSA                                             000076
10210847762001315924800257892        001100000000000000142411101424111            109014241110             I02181018000233480301424111            12111800000001639003410361601000000000000000000000000000000000000000000000000000000000000000000000000000000000000000000000000000000490000000000000         00000000000000000000000ELIZABETE CAVALCANTE                                                  000077
10210847762001315924800257892        001100000000000000142411201424112            109014241128             I02181018000233480401424112            05111800000001639003410361601000000000000000000000000000000000000000000000000000000000000000000000000000000000000000000000000000000490000000000000         00000000000000000000000REGINALDO CABRAL ACIOLY NETO                                          000078
10210847762001315924800257892        001100000000000000142411301424113            109014241136             I02181018000233480501424113            05111800000001695003410361601000000000000000000000000000000000000000000000000000000000000000000000000000000000000000000000000000000510000000000000         00000000000000000000000ADRIANO LEITE MORAES                                                  000079
10210847762001315924800257892        001100000000000000142411401424114            109014241144             I02181018000233480601424114            05111800000001720003410361601000000000000000000000000000000000000000000000000000000000000000000000000000000000000000000000000000000520000000000000         00000000000000000000000GISELE VIDAL ALMEIDA                                                  000080
10210847762001315924800257892        001100000000000000142411501424115            109014241151             I02181018000233480701424115            05111800000001720003410361601000000000000000000000000000000000000000000000000000000000000000000000000000000000000000000000000000000520000000000000         00000000000000000000000ADRIANA MARIA DAS NEVES                                               000081
10210847762001315924800257892        001100000000000000142411601424116            109014241169             I02181018000233480801424116            05111800000001720003410361601000000000000000000000000000000000000000000000000000000000000000000000000000000000000000000000000000000520000000000000         00000000000000000000000MARCOS ANTONIO VELOSO COUTINHO                                        000082
10210847762001315924800257892        001100000000000000142411801424118            109014241185             I02181018000233481001424118            05111800000001720003410361601000000000000000000000000000000000000000000000000000000000000000000000000000000000000000000000000000000520000000000000         00000000000000000000000EVALDO SANTANA DE SOUZA                                               000083
10210847762001315924800257892        001100000000000000142411901424119            109014241193             I02181018000233481101424119            05111800000001580503410361601000000000000000000000000000000000000000000000000000000000000000000000000000000000000000000000000000000480000000000000         00000000000000000000000EIMAR CAVALCANTI MORAIS FILHO                                         000084
10210847762001315924800257892        001100000000000000142412001424120            109014241201             I02181018000233481201424120            05111800000001580503410361601000000000000000000000000000000000000000000000000000000000000000000000000000000000000000000000000000000480000000000000         00000000000000000000000JOSE PEDRO QUEIR FIG JUNIOR                                           000085
10210847762001315924800257892        001100000000000000142412101424121            109014241219             I02181018000233481301424121            05111800000001580503410361601000000000000000000000000000000000000000000000000000000000000000000000000000000000000000000000000000000480000000000000         00000000000000000000000ERIKA RABELO FORTE DE SIQUEIRA                                        000086
10210847762001315924800257892        001100000000000000142412201424122            109014241227             I02181018000233481401424122            05111800000001580503410361601000000000000000000000000000000000000000000000000000000000000000000000000000000000000000000000000000000480000000000000         00000000000000000000000MARCAL DURVAL SIQ PAIVA JUNIOR                                        000087
10210847762001315924800257892        001100000000000000142412301424123            109014241235             I02181018000233481501424123            05111800000001580503410361601000000000000000000000000000000000000000000000000000000000000000000000000000000000000000000000000000000480000000000000         00000000000000000000000ROSANE ROSAL NASCIMENTO SILVA                                         000088
10210847762001315924800257892        001100000000000000142412401424124            109014241243             I02181018000233481601424124            05111800000001580503410361601000000000000000000000000000000000000000000000000000000000000000000000000000000000000000000000000000000480000000000000         00000000000000000000000JANAINA PEREIRA LIMA                                                  000089
10210847762001315924800257892        001100000000000000142412501424125            109014241250             I02181018000233481701424125            05111800000001580503410361601000000000000000000000000000000000000000000000000000000000000000000000000000000000000000000000000000000480000000000000         00000000000000000000000LUCIANA DE ANDRADE SCHULER                                            000090
10210847762001315924800257892        001100000000000000142412601424126            109014241268             I02181018000233481801424126            05111800000001580503410361601000000000000000000000000000000000000000000000000000000000000000000000000000000000000000000000000000000480000000000000         00000000000000000000000POLLYANNA KEL SALV FREIT ARAU                                         000091
10210847762001315924800257892        001100000000000000142412701424127            109014241276             I02181018000233481901424127            05111800000001580503410361601000000000000000000000000000000000000000000000000000000000000000000000000000000000000000000000000000000480000000000000         00000000000000000000000MARCAL DURVAL SIQ PAIVA JUNIOR                                        000092
10210847762001315924800257892        001100000000000000142412801424128            109014241284             I02181018000233482001424128            05111800000001580503410361601000000000000000000000000000000000000000000000000000000000000000000000000000000000000000000000000000000480000000000000         00000000000000000000000HUGO LEONARDO CORREA NOGUEIRA                                         000093
10210847762001315924800257892        001100000000000000142412901424129            109014241292             I02181018000233482101424129            05111800000001580503410361601000000000000000000000000000000000000000000000000000000000000000000000000000000000000000000000000000000480000000000000         00000000000000000000000MARIA JURACY MEIRELES DE MELO                                         000094
10210847762001315924800257892        001100000000000000142413001424130            109014241300             I02181018000233482201424130            05111800000001580503410361601000000000000000000000000000000000000000000000000000000000000000000000000000000000000000000000000000000480000000000000         00000000000000000000000ANA CAR MELO GOMES PER SOARES                                         000095
10210847762001315924800257892        001100000000000000142413101424131            109014241318             I02181018000233482301424131            05111800000001580503410361601000000000000000000000000000000000000000000000000000000000000000000000000000000000000000000000000000000480000000000000         00000000000000000000000EDUARDO VIEIRA CARVALHO JUNIOR                                        000096
10210847762001315924800257892        001100000000000000142413201424132            109014241326             I02181018000233482401424132            05111800000001580503410361601000000000000000000000000000000000000000000000000000000000000000000000000000000000000000000000000000000480000000000000         00000000000000000000000DEBORAH MARIA CASTRO BARB LEAL                                        000097
10210847762001315924800257892        001100000000000000142413301424133            109014241334             I02181018000233482501424133            05111800000001580503410361601000000000000000000000000000000000000000000000000000000000000000000000000000000000000000000000000000000480000000000000         00000000000000000000000CLAYTON SARAIVA ALCANTARA                                             000098
10210847762001315924800257892        001100000000000000142413401424134            109014241342             I02181018000233482601424134            05111800000001580503410361601000000000000000000000000000000000000000000000000000000000000000000000000000000000000000000000000000000480000000000000         00000000000000000000000KARINE STUPP MONTEIRO ALMEIDA                                         000099
10210847762001315924800257892        001100000000000000142413501424135            109014241359             I02181018000233482701424135            05111800000001580503410361601000000000000000000000000000000000000000000000000000000000000000000000000000000000000000000000000000000480000000000000         00000000000000000000000ELAINE BATISTA FERREIRA SILVA                                         000100
10210847762001315924800257892        001100000000000000142413601424136            109014241367             I02181018000233482801424136            05111800000001580503410361601000000000000000000000000000000000000000000000000000000000000000000000000000000000000000000000000000000480000000000000         00000000000000000000000DIOGO LOPES TAVARES DE MELO                                           000101
10210847762001315924800257892        001100000000000000142413701424137            109014241375             I02181018000233482901424137            05111800000001580503410361601000000000000000000000000000000000000000000000000000000000000000000000000000000000000000000000000000000480000000000000         00000000000000000000000EZEQUIEL GARCEZ AMORIM                                                000102
10210847762001315924800257892        001100000000000000142413801424138            109014241383             I02181018000233483001424138            05111800000001580503410361601000000000000000000000000000000000000000000000000000000000000000000000000000000000000000000000000000000480000000000000         00000000000000000000000MARIA CL REGO MAC SOUTO MAIOR                                         000103
10210847762001315924800257892        001100000000000000142413901424139            109014241391             I02181018000233483101424139            05111800000001580503410874801000000000000000000000000000000000000000000000000000000000000000000000000000000000000000000000000000000480000000000000         00000000000000000000000LUIZ ARTUR GUEDES MARQUES                                             000104
10210847762001315924800257892        001100000000000000142414001424140            109014241409             I02181018000233483201424140            05111800000001580503410361601000000000000000000000000000000000000000000000000000000000000000000000000000000000000000000000000000000480000000000000         00000000000000000000000ANTONIO VICTOR TENORIO MUNIZ                                          000105
10210847762001315924800257892        001100000000000000142414101424141            109014241417             I02181018000233483301424141            05111800000001580503410361601000000000000000000000000000000000000000000000000000000000000000000000000000000000000000000000000000000480000000000000         00000000000000000000000REINALDO MELO SOARES                                                  000106
10210847762001315924800257892        001100000000000000142414201424142            109014241425             I02181018000233483401424142            05111800000001580503410361601000000000000000000000000000000000000000000000000000000000000000000000000000000000000000000000000000000480000000000000         00000000000000000000000EULALIA MARIA MOURA DE SORDI                                          000107
10210847762001315924800257892        001100000000000000142414301424143            109014241433             I02181018000233483501424143            05111800000001580503410361601000000000000000000000000000000000000000000000000000000000000000000000000000000000000000000000000000000480000000000000         00000000000000000000000ARTHUR LUIS ALV FR CARVALHO                                           000108
10210847762001315924800257892        001100000000000000142414401424144            109014241441             I02181018000233483601424144            05111800000001580503410361601000000000000000000000000000000000000000000000000000000000000000000000000000000000000000000000000000000480000000000000         00000000000000000000000LUCIANO DE MELO JUNIOR                                                000109
10210847762001315924800257892        001100000000000000142414501424145            109014241458             I02181018000233483701424145            05111800000001580503410361601000000000000000000000000000000000000000000000000000000000000000000000000000000000000000000000000000000480000000000000         00000000000000000000000IZABEL TATIANA BEZERRA SILVA                                          000110
10210847762001315924800257892        001100000000000000142414601424146            109014241466             I02181018000233483801424146            05111800000001580503410361601000000000000000000000000000000000000000000000000000000000000000000000000000000000000000000000000000000480000000000000         00000000000000000000000MARIA REG LIMA GULDE MENDONCA                                         000111
10210847762001315924800257892        001100000000000000142414701424147            109014241474             I02181018000233483901424147            05111800000001580503410361601000000000000000000000000000000000000000000000000000000000000000000000000000000000000000000000000000000480000000000000         00000000000000000000000PAULA REJANE DE MOURA                                                 000112
10210847762001315924800257892        001100000000000000142414801424148            109014241482             I02181018000233484001424148            05111800000001580503410361601000000000000000000000000000000000000000000000000000000000000000000000000000000000000000000000000000000480000000000000         00000000000000000000000ALINE CAVALCANTI DA COSTA                                             000113
10210847762001315924800257892        001100000000000000142414901424149            109014241490             I02181018000233484101424149            05111800000001580503410361601000000000000000000000000000000000000000000000000000000000000000000000000000000000000000000000000000000480000000000000         00000000000000000000000AMANDA MAR TORRES GAL CARVALHO                                        000114
10210847762001315924800257892        001100000000000000142415001424150            109014241508             I02181018000233484201424150            05111800000001580503410361601000000000000000000000000000000000000000000000000000000000000000000000000000000000000000000000000000000480000000000000         00000000000000000000000SAMPSON ALENCAR PEREIRA JUNIOR                                        000115
10210847762001315924800257892        001100000000000000142415101424151            109014241516             I02181018000233484301424151            05111800000001580503410361601000000000000000000000000000000000000000000000000000000000000000000000000000000000000000000000000000000480000000000000         00000000000000000000000RICARDO AUGUSTO BARROS CAMPELO                                        000116
10210847762001315924800257892        001100000000000000142415201424152            109014241524             I02181018000233484401424152            05111800000001580503410361601000000000000000000000000000000000000000000000000000000000000000000000000000000000000000000000000000000480000000000000         00000000000000000000000ELMO CANDIDO CARNEIRO NETO                                            000117
10210847762001315924800257892        001100000000000000142415301424153            109014241532             I02181018000233484501424153            05111800000001580503410361601000000000000000000000000000000000000000000000000000000000000000000000000000000000000000000000000000000480000000000000         00000000000000000000000CARLOS ALBERTO CUNHA MIRANDA                                          000118
10210847762001315924800257892        001100000000000000142415401424154            109014241540             I02181018000233484601424154            05111800000001580503410361601000000000000000000000000000000000000000000000000000000000000000000000000000000000000000000000000000000480000000000000         00000000000000000000000FIDELIS FERREIRA AMORIM                                               000119
10210847762001315924800257892        001100000000000000142415501424155            109014241557             I02181018000233484701424155            05111800000001580503410361601000000000000000000000000000000000000000000000000000000000000000000000000000000000000000000000000000000480000000000000         00000000000000000000000MARCELLE RIBEIRO LIMEIRA                                              000120
10210847762001315924800257892        001100000000000000142415601424156            109014241565             I02181018000233484801424156            05111800000001580503419248601000000000000000000000000000000000000000000000000000000000000000000000000000000000000000000000000000000480000000000000         00990000000000000000000ROBERTO MEDEIROS LINS JUNIOR                         01000000         000121
10210847762001315924800257892        001100000000000000142415701424157            109014241573             I02181018000233484901424157            05111800000001580503410361601000000000000000000000000000000000000000000000000000000000000000000000000000000000000000000000000000000480000000000000         00000000000000000000000EULALIA MARIA MOURA DE SORDI                                          000122
10210847762001315924800257892        001100000000000000142415801424158            109014241581             I02181018000233485001424158            05111800000001580503410361601000000000000000000000000000000000000000000000000000000000000000000000000000000000000000000000000000000480000000000000         00000000000000000000000ARTHUR HENR RIBEIRO VALLE FARI                                        000123
10210847762001315924800257892        001100000000000000142415901424159            109014241599             I02181018000233485101424159            05111800000001580503410361601000000000000000000000000000000000000000000000000000000000000000000000000000000000000000000000000000000480000000000000         00000000000000000000000LUCIANA DE ANDRADE SCHULER                                            000124
10210847762001315924800257892        001100000000000000142416001424160            109014241607             I02181018000233485201424160            05111800000001580503410361601000000000000000000000000000000000000000000000000000000000000000000000000000000000000000000000000000000480000000000000         00000000000000000000000MARCELO ERNESTO LUCKWU FERRAZ                                         000125
10210847762001315924800257892        001100000000000000142416101424161            109014241615             I02181018000233485301424161            05111800000001580503410361601000000000000000000000000000000000000000000000000000000000000000000000000000000000000000000000000000000480000000000000         00000000000000000000000FERNANDA MARIA CARD MENDONCA                                          000126
10210847762001315924800257892        001100000000000000142416201424162            109014241623             I02181018000233485401424162            05111800000001580503410361601000000000000000000000000000000000000000000000000000000000000000000000000000000000000000000000000000000480000000000000         00000000000000000000000ETTORE LABANCA                                                        000127
10210847762001315924800257892        001100000000000000142416301424163            109014241631             I02181018000233485501424163            05111800000001580503410361601000000000000000000000000000000000000000000000000000000000000000000000000000000000000000000000000000000480000000000000         00000000000000000000000DEOCLIDES LIMA BEZERRA JUNIOR                                         000128
10210847762001315924800257892        001100000000000000142416401424164            109014241649             I02181018000233485601424164            20111800000001580503410361601000000000000000000000000000000000000000000000000000000000000000000000000000000000000000000000000000000480000000000000         00000000000000000000000ANA PAULA FRANCISCA DA SILVA                                          000129
10210847762001315924800257892        001100000000000000142416501424165            109014241656             I02181018000233485701424165            05111800000001580503410361601000000000000000000000000000000000000000000000000000000000000000000000000000000000000000000000000000000480000000000000         00000000000000000000000MAURICIO EDG REG GOM PEN NETO                                         000130
10210847762001315924800257892        001100000000000000142416601424166            109014241664             I02181018000233485801424166            05111800000001580503410361601000000000000000000000000000000000000000000000000000000000000000000000000000000000000000000000000000000480000000000000         00000000000000000000000FRANCISCO TIBERIO BARBOSA LIMA                                        000131
10210847762001315924800257892        001100000000000000142416701424167            109014241672             I02181018000233485901424167            05111800000001580503410361601000000000000000000000000000000000000000000000000000000000000000000000000000000000000000000000000000000480000000000000         00000000000000000000000ERICA DUARTE SUASS CAVALCANTI                                         000132
10210847762001315924800257892        001100000000000000142416801424168            109014241680             I02181018000233486001424168            05111800000001580503410361601000000000000000000000000000000000000000000000000000000000000000000000000000000000000000000000000000000480000000000000         00000000000000000000000MARIA CAND CAP MAIA CAVALCANTI                                        000133
10210847762001315924800257892        001100000000000000142416901424169            109014241698             I02181018000233486101424169            12111800000001580503410361601000000000000000000000000000000000000000000000000000000000000000000000000000000000000000000000000000000480000000000000         00000000000000000000000JOSE HAILTON ARRUDA DE ARAUJO                                         000134
10210847762001315924800257892        001100000000000000142417001424170            109014241706             I02181018000233486201424170            05111800000001580503410361601000000000000000000000000000000000000000000000000000000000000000000000000000000000000000000000000000000480000000000000         00000000000000000000000DIEGO TAVARES DE SOUZA                                                000135
10210847762001315924800257892        001100000000000000142417101424171            109014241714             I02181018000233486301424171            05111800000001580503410361601000000000000000000000000000000000000000000000000000000000000000000000000000000000000000000000000000000480000000000000         00000000000000000000000MARCO AURELIO GOMES ARAUJO                                            000136
10210847762001315924800257892        001100000000000000142417201424172            109014241722             I02181018000233486401424172            05111800000001580503410361601000000000000000000000000000000000000000000000000000000000000000000000000000000000000000000000000000000480000000000000         00000000000000000000000RODRIGO CHAVES PEIXOTO                                                000137
10210847762001315924800257892        001100000000000000142417301424173            109014241730             I02181018000233486501424173            05111800000001580503410361601000000000000000000000000000000000000000000000000000000000000000000000000000000000000000000000000000000480000000000000         00000000000000000000000WAGNER GERMANO DA CUNHA                                               000138
10210847762001315924800257892        001100000000000000142417401424174            109014241748             I02181018000233486601424174            05111800000001580503410361601000000000000000000000000000000000000000000000000000000000000000000000000000000000000000000000000000000480000000000000         00000000000000000000000MARIANA GUEDES ALMINO VALENCA                                         000139
10210847762001315924800257892        001100000000000000142417501424175            109014241755             I02181018000233486701424175            05111800000001580503410361601000000000000000000000000000000000000000000000000000000000000000000000000000000000000000000000000000000480000000000000         00000000000000000000000DEBORAH MARIA CASTRO BARB LEAL                                        000140
10210847762001315924800257892        001100000000000000142417601424176            109014241763             I02181018000233486801424176            12111800000001580503410361601000000000000000000000000000000000000000000000000000000000000000000000000000000000000000000000000000000480000000000000         00000000000000000000000AMERICA DE ARAUJO PALMEIRA                                            000141
10210847762001315924800257892        001100000000000000142417701424177            109014241771             I02181018000233486901424177            05111800000001580503410361601000000000000000000000000000000000000000000000000000000000000000000000000000000000000000000000000000000480000000000000         00000000000000000000000JOAO BRUNO MAG OLIVEIRA ROMA                                          000142
10210847762001315924800257892        001100000000000000142417801424178            109014241789             I02181018000233487001424178            05111800000001580503410361601000000000000000000000000000000000000000000000000000000000000000000000000000000000000000000000000000000480000000000000         00000000000000000000000MARIA SOC MARINHO ALVES CARVAL                                        000143
10210847762001315924800257892        001100000000000000142417901424179            109014241797             I02181018000233487101424179            05111800000001580503410361601000000000000000000000000000000000000000000000000000000000000000000000000000000000000000000000000000000480000000000000         00000000000000000000000JULIE DE SOUSA CORDEIRO                                               000144
10210847762001315924800257892        001100000000000000142418001424180            109014241805             I02181018000233487201424180            20111800000001580503410361601000000000000000000000000000000000000000000000000000000000000000000000000000000000000000000000000000000480000000000000         00000000000000000000000MOISES ZARZAR CORREIA DE MELO                                         000145
10210847762001315924800257892        001100000000000000142418101424181            109014241813             I02181018000233487301424181            05111800000001580503410361601000000000000000000000000000000000000000000000000000000000000000000000000000000000000000000000000000000480000000000000         00000000000000000000000PRISCILA ARAUJO FERRAZ                                                000146
10210847762001315924800257892        001100000000000000142418201424182            109014241821             I02181018000233487401424182            05111800000001580503410361601000000000000000000000000000000000000000000000000000000000000000000000000000000000000000000000000000000480000000000000         00000000000000000000000VIVIANE BRANCO WANDERLEY                                              000147
10210847762001315924800257892        001100000000000000142418301424183            109014241839             I02181018000233487501424183            05111800000001580503410361601000000000000000000000000000000000000000000000000000000000000000000000000000000000000000000000000000000480000000000000         00000000000000000000000FELICIANO LYRA MOURA                                                  000148
10210847762001315924800257892        001100000000000000142418401424184            109014241847             I02181018000233487601424184            05111800000001580503410361601000000000000000000000000000000000000000000000000000000000000000000000000000000000000000000000000000000480000000000000         00000000000000000000000MARIA CAND CAP MAIA CAVALCANTI                                        000149
10210847762001315924800257892        001100000000000000142418501424185            109014241854             I02181018000233487701424185            05111800000001580503410361601000000000000000000000000000000000000000000000000000000000000000000000000000000000000000000000000000000480000000000000         00000000000000000000000JOAO MARCELO ANDRADE OLIVEIRA                                         000150
10210847762001315924800257892        001100000000000000142418601424186            109014241862             I02181018000233487801424186            05111800000001580503410361601000000000000000000000000000000000000000000000000000000000000000000000000000000000000000000000000000000480000000000000         00000000000000000000000JOSE DIAS DA COSTA                                                    000151
10210847762001315924800257892        001100000000000000142418701424187            109014241870             I02181018000233487901424187            05111800000001580503410361601000000000000000000000000000000000000000000000000000000000000000000000000000000000000000000000000000000480000000000000         00000000000000000000000JOAO PAULO FERREIRA DA COSTA                                          000152
10210847762001315924800257892        001100000000000000142418801424188            109014241888             I02181018000233488001424188            05111800000001580503410361601000000000000000000000000000000000000000000000000000000000000000000000000000000000000000000000000000000480000000000000         00000000000000000000000IANA COSTA FREITAS DE OLIVEIRA                                        000153
10210847762001315924800257892        001100000000000000142418901424189            109014241896             I02181018000233488101424189            05111800000001639003410361601000000000000000000000000000000000000000000000000000000000000000000000000000000000000000000000000000000490000000000000         00000000000000000000000FERNANDO MENDES FREITAS FILHO                                         000154
10210847762001315924800257892        001100000000000000142419001424190            109014241904             I02181018000233488201424190            05111800000001580503410361601000000000000000000000000000000000000000000000000000000000000000000000000000000000000000000000000000000480000000000000         00000000000000000000000KYDSON ALVES DA SILVA                                                 000155
10210847762001315924800257892        001100000000000000142419101424191            109014241912             I02181018000233488301424191            05111800000001580503410361601000000000000000000000000000000000000000000000000000000000000000000000000000000000000000000000000000000480000000000000         00000000000000000000000LAERCIO DE SOUZA RIBEIRO NETO                                         000156
10210847762001315924800257892        001100000000000000142419201424192            109014241920             I02181018000233488401424192            05111800000001580503410361601000000000000000000000000000000000000000000000000000000000000000000000000000000000000000000000000000000480000000000000         00000000000000000000000ARTHUR HENR RIBEIRO VALLE FARI                                        000157
10210847762001315924800257892        001100000000000000142419301424193            109014241938             I02181018000233488501424193            05111800000001580503410361601000000000000000000000000000000000000000000000000000000000000000000000000000000000000000000000000000000480000000000000         00000000000000000000000SANTINO HERCULANO DE LIMA NETO                                        000158
10210847762001315924800257892        001100000000000000142419401424194            109014241946             I02181018000233488601424194            05111800000001580503410361601000000000000000000000000000000000000000000000000000000000000000000000000000000000000000000000000000000480000000000000         00000000000000000000000MILENA LINS DE CERQUEIRA PORTO                                        000159
10210847762001315924800257892        001100000000000000142419501424195            109014241953             I02181018000233488701424195            05111800000001580503410361601000000000000000000000000000000000000000000000000000000000000000000000000000000000000000000000000000000480000000000000         00000000000000000000000CAROLINE MORAIS ARAUJO GUENES                                         000160
10210847762001315924800257892        001100000000000000142419601424196            109014241961             I02181018000233488801424196            05111800000001580503410361601000000000000000000000000000000000000000000000000000000000000000000000000000000000000000000000000000000480000000000000         00000000000000000000000REILHE LEITE SAMPAIO                                                  000161
10210847762001315924800257892        001100000000000000142419701424197            109014241979             I02181018000233488901424197            05111800000001580503410361601000000000000000000000000000000000000000000000000000000000000000000000000000000000000000000000000000000480000000000000         00000000000000000000000RENATA EVANG PESSOA PIERROT                                           000162
10210847762001315924800257892        001100000000000000142419801424198            109014241987             I02181018000233489001424198            05111800000001580503410361601000000000000000000000000000000000000000000000000000000000000000000000000000000000000000000000000000000480000000000000         00000000000000000000000MILENA LINS DE CERQUEIRA PORTO                                        000163
10210847762001315924800257892        001100000000000000142419901424199            109014241995             I02181018000233489101424199            05111800000001580503410361601000000000000000000000000000000000000000000000000000000000000000000000000000000000000000000000000000000480000000000000         00000000000000000000000RODRIGO PIRES RIBEIRO                                                 000164
10210847762001315924800257892        001100000000000000142420001424200            109014242001             I02181018000233489201424200            05111800000001580503410361601000000000000000000000000000000000000000000000000000000000000000000000000000000000000000000000000000000480000000000000         00000000000000000000000LUIZ EDUARDO PAIVA RIBEIRO                                            000165
10210847762001315924800257892        001100000000000000142420101424201            109014242019             I02181018000233489301424201            05111800000001580503410361601000000000000000000000000000000000000000000000000000000000000000000000000000000000000000000000000000000480000000000000         00000000000000000000000ANDRE CAST BRANCO ALVES TORRES                                        000166
10210847762001315924800257892        001100000000000000142420201424202            109014242027             I02181018000233489401424202            12111800000001580503410361601000000000000000000000000000000000000000000000000000000000000000000000000000000000000000000000000000000480000000000000         00000000000000000000000CATARINA CAB TENOR DOMINGUES                                          000167
10210847762001315924800257892        001100000000000000142420301424203            109014242035             I02181018000233489501424203            05111800000001580503410361601000000000000000000000000000000000000000000000000000000000000000000000000000000000000000000000000000000480000000000000         00000000000000000000000PRISCILA NOTARO CAV MELO                                              000168
10210847762001315924800257892        001100000000000000142420401424204            109014242043             I02181018000233489601424204            05111800000001580503410361601000000000000000000000000000000000000000000000000000000000000000000000000000000000000000000000000000000480000000000000         00000000000000000000000SERCIO FL BRAND MENEZ CORREIA                                         000169
10210847762001315924800257892        001100000000000000142420501424205            109014242050             I02181018000233489701424205            05111800000001580503410361601000000000000000000000000000000000000000000000000000000000000000000000000000000000000000000000000000000480000000000000         00000000000000000000000FLAVIA MARIS DUARTE SOARES                                            000170
10210847762001315924800257892        001100000000000000142420601424206            109014242068             I02181018000233489801424206            05111800000001580503410874801000000000000000000000000000000000000000000000000000000000000000000000000000000000000000000000000000000480000000000000         00000000000000000000000PEDRO ANDRE CARVALHO ROSAS                                            000171
10210847762001315924800257892        001100000000000000142420701424207            109014242076             I02181018000233489901424207            05111800000001580503410361601000000000000000000000000000000000000000000000000000000000000000000000000000000000000000000000000000000480000000000000         00000000000000000000000LUIZ EDUARDO PAIVA RIBEIRO                                            000172
10210847762001315924800257892        001100000000000000142420801424208            109014242084             I02181018000233490001424208            05111800000001580503410361601000000000000000000000000000000000000000000000000000000000000000000000000000000000000000000000000000000480000000000000         00000000000000000000000FELICIANO LYRA MOURA                                                  000173
10210847762001315924800257892        001100000000000000142420901424209            109014242092             I02181018000233490101424209            05111800000001580503410361601000000000000000000000000000000000000000000000000000000000000000000000000000000000000000000000000000000480000000000000         00000000000000000000000LUANA CAMAR MENEZ BRED ACIOLI                                         000174
10210847762001315924800257892        001100000000000000142421001424210            109014242100             I02181018000233490201424210            05111800000001580503410361601000000000000000000000000000000000000000000000000000000000000000000000000000000000000000000000000000000480000000000000         00000000000000000000000TATIANA FERNANDES DOS SANTOS                                          000175
10210847762001315924800257892        001100000000000000142421101424211            109014242118             I02181018000233490301424211            05111800000001580503410361601000000000000000000000000000000000000000000000000000000000000000000000000000000000000000000000000000000480000000000000         00000000000000000000000TATIANA FERNANDES DOS SANTOS                                          000176
10210847762001315924800257892        001100000000000000142421201424212            109014242126             I02181018000233490401424212            05111800000001580503410361601000000000000000000000000000000000000000000000000000000000000000000000000000000000000000000000000000000480000000000000         00000000000000000000000EDUARDO RANIERE PESSOA AQUINO                                         000177
10210847762001315924800257892        001100000000000000142421301424213            109014242134             I02181018000233490501424213            05111800000001580503410361601000000000000000000000000000000000000000000000000000000000000000000000000000000000000000000000000000000480000000000000         00000000000000000000000MARIA BEATRIZ MARTINS SWENSON                                         000178
10210847762001315924800257892        001100000000000000142421401424214            109014242142             I02181018000233490601424214            05111800000001580503410361601000000000000000000000000000000000000000000000000000000000000000000000000000000000000000000000000000000480000000000000         00000000000000000000000TOMAZ CHR ALBUQUERQUE GOMES                                           000179
10210847762001315924800257892        001100000000000000142421501424215            109014242159             I02181018000233490701424215            05111800000001580503410361601000000000000000000000000000000000000000000000000000000000000000000000000000000000000000000000000000000480000000000000         00000000000000000000000PRISCILLA GOMES LINS                                                  000180
10210847762001315924800257892        001100000000000000142421601424216            109014242167             I02181018000233490801424216            05111800000001580503410361601000000000000000000000000000000000000000000000000000000000000000000000000000000000000000000000000000000480000000000000         00000000000000000000000MARIA LIG PRIORI BARB TAVAR SA                                        000181
10210847762001315924800257892        001100000000000000142421701424217            109014242175             I02181018000233490901424217            05111800000001580503410361601000000000000000000000000000000000000000000000000000000000000000000000000000000000000000000000000000000480000000000000         00000000000000000000000NELSON STUDART ROCHA                                                  000182
10210847762001315924800257892        001100000000000000142421801424218            109014242183             I02181018000233491001424218            05111800000001580503416942701000000000000000000000000000000000000000000000000000000000000000000000000000000000000000000000000000000480000000000000         00000000000000000000000RUDRIGO DE MELO MACIEL                                                000183
10210847762001315924800257892        001100000000000000142421901424219            109014242191             I02181018000233491101424219            12111800000001580503410361601000000000000000000000000000000000000000000000000000000000000000000000000000000000000000000000000000000480000000000000         00000000000000000000000CATARINA CAB TENOR DOMINGUES                                          000184
10210847762001315924800257892        001100000000000000142422001424220            109014242209             I02181018000233491201424220            05111800000001650263410361601000000000000000000000000000000000000000000000000000000000000000000000000000000000000000000000000000000500000000000000         00000000000000000000000ADRIANO LEON OLIV FILGUEIRA G                                         000185
10210847762001315924800257892        001100000000000000142422101424221            109014242217             I02181018000233491301424221            05111800000001650263410361601000000000000000000000000000000000000000000000000000000000000000000000000000000000000000000000000000000500000000000000         00000000000000000000000ANDERSON BARROS DA SILVA                                              000186
10210847762001315924800257892        001100000000000000142422201424222            109014242225             I02181018000233491401424222            05111800000001580503410361601000000000000000000000000000000000000000000000000000000000000000000000000000000000000000000000000000000480000000000000         00000000000000000000000CARLOS ALB CAVALCANTI MARTINS                                         000187
10210847762001315924800257892        001100000000000000142422301424223            109014242233             I02181018000233491501424223            05111800000001580503410361601000000000000000000000000000000000000000000000000000000000000000000000000000000000000000000000000000000480000000000000         00000000000000000000000SANDRA VERON FREITAS BRADLEY                                          000188
10210847762001315924800257892        001100000000000000142422401424224            109014242241             I02181018000233491601424224            05111800000001580503410361601000000000000000000000000000000000000000000000000000000000000000000000000000000000000000000000000000000480000000000000         00000000000000000000000JOSE GERMANO DA SILVA JUNIOR                                          000189
10210847762001315924800257892        001100000000000000142422501424225            109014242258             I02181018000233491701424225            05111800000001580503410361601000000000000000000000000000000000000000000000000000000000000000000000000000000000000000000000000000000480000000000000         00000000000000000000000JOSE PAULO GONCALVES OLIVEIRA                                         000190
10210847762001315924800257892        001100000000000000142422601424226            109014242266             I02181018000233491801424226            05111800000001580503410361601000000000000000000000000000000000000000000000000000000000000000000000000000000000000000000000000000000480000000000000         00000000000000000000000JOAO HENRIQUE PINHEIRO AMORIM                                         000191
10210847762001315924800257892        001100000000000000142422701424227            109014242274             I02181018000233491901424227            05111800000001580503410361601000000000000000000000000000000000000000000000000000000000000000000000000000000000000000000000000000000480000000000000         00000000000000000000000AMANDA CAVALCANTI DOS SANTOS                                          000192
10210847762001315924800257892        001100000000000000142422801424228            109014242282             I02181018000233492001424228            05111800000001580503410361601000000000000000000000000000000000000000000000000000000000000000000000000000000000000000000000000000000480000000000000         00000000000000000000000MARCELO NERY RIBEIRO                                                  000193
10210847762001315924800257892        001100000000000000142422901424229            109014242290             I02181018000233492101424229            05111800000001580503410361601000000000000000000000000000000000000000000000000000000000000000000000000000000000000000000000000000000480000000000000         00000000000000000000000RAFAEL BEZERRA DE PAIVA                                               000194
10210847762001315924800257892        001100000000000000142423001424230            109014242308             I02181018000233492201424230            05111800000001580503410361601000000000000000000000000000000000000000000000000000000000000000000000000000000000000000000000000000000480000000000000         00000000000000000000000ANTONELLA SARAIVA LANNA                                               000195
10210847762001315924800257892        001100000000000000142423101424231            109014242316             I02181018000233492301424231            05111800000001580503410361601000000000000000000000000000000000000000000000000000000000000000000000000000000000000000000000000000000480000000000000         00000000000000000000000BRUNO JOSE PEIXOTO COUTINHO                                           000196
10210847762001315924800257892        001100000000000000142423201424232            109014242324             I02181018000233492401424232            05111800000001580503410361601000000000000000000000000000000000000000000000000000000000000000000000000000000000000000000000000000000480000000000000         00000000000000000000000ALDO FERN ALBUQ BEZERRA JU                                            000197
10210847762001315924800257892        001100000000000000142423301424233            109014242332             I02181018000233492501424233            05111800000001580503410361601000000000000000000000000000000000000000000000000000000000000000000000000000000000000000000000000000000480000000000000         00000000000000000000000LUIS EDUARDO TRINDADE GREGIO                                          000198
10210847762001315924800257892        001100000000000000142423401424234            109014242340             I02181018000233492601424234            05111800000001580503410361601000000000000000000000000000000000000000000000000000000000000000000000000000000000000000000000000000000480000000000000         00000000000000000000000LEONARDO FIGUEIREDO NEGROMONTE                                        000199
10210847762001315924800257892        001100000000000000142423501424235            109014242357             I02181018000233492701424235            05111800000001580503410372301000000000000000000000000000000000000000000000000000000000000000000000000000000000000000000000000000000480000000000000         00000000000000000000000RODRIGO DE HOLANDA CARVALHO                                           000200
10210847762001315924800257892        001100000000000000142423601424236            109014242365             I02181018000233492801424236            05111800000001580503410361601000000000000000000000000000000000000000000000000000000000000000000000000000000000000000000000000000000480000000000000         00000000000000000000000RENATA FARACHE DE LIMA                                                000201
10210847762001315924800257892        001100000000000000142423701424237            109014242373             I02181018000233492901424237            05111800000001580503410361601000000000000000000000000000000000000000000000000000000000000000000000000000000000000000000000000000000480000000000000         00000000000000000000000BRUNA SPINELLI SOUZA CARVALHO                                         000202
10210847762001315924800257892        001100000000000000142423801424238            109014242381             I02181018000233493001424238            05111800000001580503410361601000000000000000000000000000000000000000000000000000000000000000000000000000000000000000000000000000000480000000000000         00000000000000000000000PRISCILA KRAUSE BRANCO                                                000203
10210847762001315924800257892        001100000000000000142423901424239            109014242399             I02181018000233493101424239            05111800000001580503410361601000000000000000000000000000000000000000000000000000000000000000000000000000000000000000000000000000000480000000000000         00000000000000000000000SAULO DUARTE FEITOSA GOMES                                            000204
10210847762001315924800257892        001100000000000000142424001424240            109014242407             I02181018000233493201424240            05111800000001580503410361601000000000000000000000000000000000000000000000000000000000000000000000000000000000000000000000000000000480000000000000         00000000000000000000000CRISTINA PAULA QUIRINO MELLO                                          000205
10210847762001315924800257892        001100000000000000142424101424241            109014242415             I02181018000233493301424241            05111800000001580503410361601000000000000000000000000000000000000000000000000000000000000000000000000000000000000000000000000000000480000000000000         00000000000000000000000MARTHA MAR SOBRAL PERNAMBUCANO                                        000206
10210847762001315924800257892        001100000000000000142424201424242            109014242423             I02181018000233493401424242            05111800000001580503410361601000000000000000000000000000000000000000000000000000000000000000000000000000000000000000000000000000000480000000000000         00000000000000000000000ANTONELLA SARAIVA LANNA                                               000207
10210847762001315924800257892        001100000000000000142424301424243            109014242431             I02181018000233493501424243            05111800000001580503410361601000000000000000000000000000000000000000000000000000000000000000000000000000000000000000000000000000000480000000000000         00000000000000000000000ANDRE VICENTE PIRES ROSA                                              000208
10210847762001315924800257892        001100000000000000142424401424244            109014242449             I02181018000233493601424244            05111800000001580503410361601000000000000000000000000000000000000000000000000000000000000000000000000000000000000000000000000000000480000000000000         00000000000000000000000JOSE DIOG CEZAR SOUZA JUNIOR                                          000209
10210847762001315924800257892        001100000000000000142424501424245            109014242456             I02181018000233493701424245            05111800000001580503410361601000000000000000000000000000000000000000000000000000000000000000000000000000000000000000000000000000000480000000000000         00000000000000000000000JOSE PEDRO QUEIR FIG JUNIOR                                           000210
10210847762001315924800257892        001100000000000000142424601424246            109014242464             I02181018000233493801424246            05111800000001580503410361601000000000000000000000000000000000000000000000000000000000000000000000000000000000000000000000000000000480000000000000         00000000000000000000000MARIA FR DIAS ARAUJO BELTRAO                                          000211
10210847762001315924800257892        001100000000000000142424701424247            109014242472             I02181018000233493901424247            05111800000001580503410361601000000000000000000000000000000000000000000000000000000000000000000000000000000000000000000000000000000480000000000000         00000000000000000000000FRANCISCO NEVES DOS SANTOS                                            000212
10210847762001315924800257892        001100000000000000142424801424248            109014242480             I02181018000233494001424248            05111800000001580503410361601000000000000000000000000000000000000000000000000000000000000000000000000000000000000000000000000000000480000000000000         00000000000000000000000PRISCILA KRAUSE BRANCO                                                000213
10210847762001315924800257892        001100000000000000142425001424250            109014242506             I02181018000233494201424250            05111800000001580503410361601000000000000000000000000000000000000000000000000000000000000000000000000000000000000000000000000000000480000000000000         00000000000000000000000ANDREA DA FONTE MACIEL BRAGA                                          000214
10210847762001315924800257892        001100000000000000142425101424251            109014242514             I02181018000233494301424251            05111800000001580503410361601000000000000000000000000000000000000000000000000000000000000000000000000000000000000000000000000000000480000000000000         00000000000000000000000RICARDO CORDEIRO DO NASCIMENTO                                        000215
10210847762001315924800257892        001100000000000000142425201424252            109014242522             I02181018000233494401424252            05111800000001580503410361601000000000000000000000000000000000000000000000000000000000000000000000000000000000000000000000000000000480000000000000         00000000000000000000000RENATA MARIA PONTES CHAVES                                            000216
10210847762001315924800257892        001100000000000000142425301424253            109014242530             I02181018000233494501424253            05111800000001580503410361601000000000000000000000000000000000000000000000000000000000000000000000000000000000000000000000000000000480000000000000         00000000000000000000000TASSIANA LEITE PERAZZO                                                000217
10210847762001315924800257892        001100000000000000142425401424254            109014242548             I02181018000233494601424254            05111800000001580503410361601000000000000000000000000000000000000000000000000000000000000000000000000000000000000000000000000000000480000000000000         00000000000000000000000EIMAR CAVALCANTI MORAIS FILHO                                         000218
10210847762001315924800257892        001100000000000000142425501424255            109014242555             I02181018000233494701424255            05111800000001639003410361601000000000000000000000000000000000000000000000000000000000000000000000000000000000000000000000000000000490000000000000         00000000000000000000000BRUNA SPINELLI SOUZA CARVALHO                                         000219
10210847762001315924800257892        001100000000000000142425601424256            109014242563             I02181018000233494801424256            05111800000001639003410361601000000000000000000000000000000000000000000000000000000000000000000000000000000000000000000000000000000490000000000000         00000000000000000000000ARLINDO DOS SANTOS MACIEL NETO                                        000220
10210847762001315924800257892        001100000000000000142425701424257            109014242571             I02181018000233494901424257            05111800000001639003410372301000000000000000000000000000000000000000000000000000000000000000000000000000000000000000000000000000000490000000000000         00000000000000000000000RODRIGO DE HOLANDA CARVALHO                                           000221
10210847762001315924800257892        001100000000000000142425801424258            109014242589             I02181018000233495001424258            05111800000001639003410361601000000000000000000000000000000000000000000000000000000000000000000000000000000000000000000000000000000490000000000000         00000000000000000000000HELENA MARIA MACH LUNDG RABELO                                        000222
10210847762001315924800257892        001100000000000000142425901424259            109014242597             I02181018000233495101424259            05111800000001639003410361601000000000000000000000000000000000000000000000000000000000000000000000000000000000000000000000000000000490000000000000         00000000000000000000000TELMO ESPED ROCHA BARROS FILHO                                        000223
10210847762001315924800257892        001100000000000000142426001424260            109014242605             I02181018000233495201424260            05111800000001695003410361601000000000000000000000000000000000000000000000000000000000000000000000000000000000000000000000000000000510000000000000         00000000000000000000000ANA PAULA ALVES FIG LIMA                                              000224
10210847762001315924800257892        001100000000000000142426101424261            109014242613             I02181018000233495301424261            05111800000001695003410361601000000000000000000000000000000000000000000000000000000000000000000000000000000000000000000000000000000510000000000000         00000000000000000000000GILBERTO NOGUEIRA GOMES                                               000225
10210847762001315924800257892        001100000000000000142426201424262            109014242621             I02181018000233495401424262            05111800000001695003410361601000000000000000000000000000000000000000000000000000000000000000000000000000000000000000000000000000000510000000000000         00000000000000000000000JOSE MAR PES BARR CAVALCANTI                                          000226
10210847762001315924800257892        001100000000000000142426301424263            109014242639             I02181018000233495501424263            05111800000001720003410361601000000000000000000000000000000000000000000000000000000000000000000000000000000000000000000000000000000520000000000000         00000000000000000000000VLADIMIR LACERDA MELQUIADES                                           000227
10210847762001315924800257892        001100000000000000142426401424264            109014242647             I02181018000233495601424264            05111800000001720003410361601000000000000000000000000000000000000000000000000000000000000000000000000000000000000000000000000000000520000000000000         00000000000000000000000MARIZA MOTA ALPES                                                     000228
10210847762001315924800257892        001100000000000000142426501424265            109014242654             I02181018000233495701424265            05111800000001720003410361601000000000000000000000000000000000000000000000000000000000000000000000000000000000000000000000000000000520000000000000         00000000000000000000000REJANE FERRAZ MENDES                                                  000229
10210847762001315924800257892        001100000000000000142426601424266            109014242662             I02181018000233495801424266            05111800000001720003410667601000000000000000000000000000000000000000000000000000000000000000000000000000000000000000000000000000000520000000000000         00000000000000000000000ENOQUE SALV ARAUJO SOBRINHO                                           000230
10210847762001315924800257892        001100000000000000142426701424267            109014242670             I02181018000233495901424267            05111800000001580503410361601000000000000000000000000000000000000000000000000000000000000000000000000000000000000000000000000000000480000000000000         00000000000000000000000MARIA RAQUEL ESTEL LAFAY PAULA                                        000231
10210847762001315924800257892        001100000000000000142426801424268            109014242688             I02181018000233496001424268            05111800000001580503410361601000000000000000000000000000000000000000000000000000000000000000000000000000000000000000000000000000000480000000000000         00000000000000000000000ANDREA DA FONTE MACIEL BRAGA                                          000232
10210847762001315924800257892        001100000000000000142426901424269            109014242696             I02181018000233496101424269            05111800000001580503410361601000000000000000000000000000000000000000000000000000000000000000000000000000000000000000000000000000000480000000000000         00000000000000000000000CARLOS HENR JOSE PEREIRA CUNHA                                        000233
10210847762001315924800257892        001100000000000000142427001424270            109014242704             I02181018000233496201424270            05111800000001580503410361601000000000000000000000000000000000000000000000000000000000000000000000000000000000000000000000000000000480000000000000         00000000000000000000000FERNANDO MAG ALBUQ ALMEID                                             000234
10210847762001315924800257892        001100000000000000142427101424271            109014242712             I02181018000233496301424271            05111800000001580503410361601000000000000000000000000000000000000000000000000000000000000000000000000000000000000000000000000000000480000000000000         00000000000000000000000FABIO JOSE NUNES RODRIGUES                                            000235
10210847762001315924800257892        001100000000000000142427201424272            109014242720             I02181018000233496401424272            05111800000001580503410361601000000000000000000000000000000000000000000000000000000000000000000000000000000000000000000000000000000480000000000000         00000000000000000000000EDUARDO HENR CARVALHO BARROS                                          000236
10210847762001315924800257892        001100000000000000142427301424273            109014242738             I02181018000233496501424273            05111800000001580503410361601000000000000000000000000000000000000000000000000000000000000000000000000000000000000000000000000000000480000000000000         00000000000000000000000CARLOS ROB SOARES SILVA JUNIOR                                        000237
10210847762001315924800257892        001100000000000000142427401424274            109014242746             I02181018000233496601424274            05111800000001580503410361601000000000000000000000000000000000000000000000000000000000000000000000000000000000000000000000000000000480000000000000         00000000000000000000000CLEBER MACIEL MORAES PRAZERES                                         000238
10210847762001315924800257892        001100000000000000142427501424275            109014242753             I02181018000233496701424275            05111800000001580503410361601000000000000000000000000000000000000000000000000000000000000000000000000000000000000000000000000000000480000000000000         00000000000000000000000MARIA SOC MARINHO ALVES CARVAL                                        000239
10210847762001315924800257892        001100000000000000142427601424276            109014242761             I02181018000233496801424276            05111800000001580503410361601000000000000000000000000000000000000000000000000000000000000000000000000000000000000000000000000000000480000000000000         00000000000000000000000IGOR JOSE DE OLIVEIRA SOUZA                                           000240
10210847762001315924800257892        001100000000000000142427701424277            109014242779             I02181018000233496901424277            05111800000001650263410874801000000000000000000000000000000000000000000000000000000000000000000000000000000000000000000000000000000500000000000000         00000000000000000000000ANDREA FREITAS MELO DOMINGUES                                         000241
10210847762001315924800257892        001100000000000000142427801424278            109014242787             I02181018000233497001424278            05111800000001580503410361601000000000000000000000000000000000000000000000000000000000000000000000000000000000000000000000000000000480000000000000         00000000000000000000000MARCIA ROB ALVES GAMA ANDRADE                                         000242
10210847762001315924800257892        001100000000000000142427901424279            109014242795             I02181018000233497101424279            05111800000001580503410361601000000000000000000000000000000000000000000000000000000000000000000000000000000000000000000000000000000480000000000000         00000000000000000000000RENATA ARRUDA SARMENTO BARBOSA                                        000243
10210847762001315924800257892        001100000000000000142428001424280            109014242803             I02181018000233497201424280            05111800000001580503410361601000000000000000000000000000000000000000000000000000000000000000000000000000000000000000000000000000000480000000000000         00000000000000000000000ULISSES DIAS DE CARVALHO                                              000244
10210847762001315924800257892        001100000000000000142428101424281            109014242811             I02181018000233497301424281            05111800000002090003410361601000000000000000000000000000000000000000000000000000000000000000000000000000000000000000000000000000000630000000000000         00000000000000000000000CLAUDIA CR DUR MAR DOMINGUES                                          000245
10210847762001315924800257892        001100000000000000142428201424282            109014242829             I02181018000233497401424282            05111800000001580503410361601000000000000000000000000000000000000000000000000000000000000000000000000000000000000000000000000000000480000000000000         00000000000000000000000PAULO JOSE FERNANDES                                                  000246
10210847762001315924800257892        001100000000000000142428301424283            109014242837             I02181018000233497501424283            05111800000001639003410361601000000000000000000000000000000000000000000000000000000000000000000000000000000000000000000000000000000490000000000000         00000000000000000000000RENATA VISGUEIRO GOMES UCHOA                                          000247
10210847762001315924800257892        001100000000000000142428401424284            109014242845             I02181018000233497601424284            05111800000001639003410361601000000000000000000000000000000000000000000000000000000000000000000000000000000000000000000000000000000490000000000000         00000000000000000000000THALES JOAQUIM ALVES TIMOTEO                                          000248
10210847762001315924800257892        001100000000000000142428501424285            109014242852             I02181018000233497701424285            05111800000001580503410478801000000000000000000000000000000000000000000000000000000000000000000000000000000000000000000000000000000480000000000000         00000000000000000000000MARILIA BORBA EGIZI LEAL                                              000249
