01REMESSA01COBRANCA       924800257892        COLEGIO DAS DAMAS DA INSTRUCAO341BANCO ITAU SA  181018                                                                                                                                                                                                                                                                                                      000001
10210847762001315924800257892    00000011000000000000001232417012324170000000000000109                     I01000001038105111800000001422783410000001N181018940000000000000430511180000000000000000000000000000000000000000200044943865453ALISSON CESAR NUNES DA PAZ              RUA TELES JUNIOR       APT 1101       30ROSARINHO   52050040RECIFE         PE  00000000000000000000000000000000000000   000002
10210847762001315924800257892    00000011000000000000001234659012346590000000000000109                     I01000001039305111800000001422783410000001N181018940000000000000430511180000000000000000000000000000000000000000100002238464492ERICK DA COSTA LIRA                     RUA DE APIPUCOS        APT 602 - C   261APIPUCOS    52071000RECIFE         PE  00000000000000000000000000000000000000   000003
10210847762001315924800257892    00000011000000000000001241151012411510000000000000109                     I01000211208805111800000001720003410000001N181018940000000000000520511180000000000000000000000000000000000000000200070606463453MARIA DAS GRACAS OLIVEIRA MAGALHAES HENRRUA TELES JUNIOR       APT 2402      350AFLITOS     52050375RECIFE         PE  01010000000000000000000000000000000000   000004
10210847762001315924800257892    00000011000000000000001250486012504860000000000000109                     I01000212282205111800000001639003410000001N181018940000000000000490511180000000000000000000000000000000000000000100001992089485FLAVIO VIEIRA GADELHA DE ALBUQUERQUE    SERRITA                APTO 601       55JAQUEIRA    52050091RECIFE         PE  01010000000000000000000000000000000000   000005
10210847762001315924800257892    00000011000000000000001259406012594060000000000000109                     I01000001050705111800000001172373410000001N181018940000000000000350511180000000000000000000000000000000000000000200003186902410LUCIOLA KARLA OLIVEIRA BELTRAO WAKED    RUA PROFESSOR SOUTO MAIAP 606         33CASA AMARELA52051240RECIFE         PE  00000000000000000000000000000000000000   000006
10210847762001315924800257892    00000011000000000000001261795012617950000000000000109                     I01000213443705111800000001580503410000001N181018940000000000000480511180000000000000000000000000000000000000000100000995594473MARCONDES HOLANDA CAVALCANTI            RUA EVARISTO DA VEIGA  APTO 602      220CASA AMARELA52070100RECIFE         PE  01010000000000000000000000000000000000   000007
10210847762001315924800257892    00000011000000000000001270355012703550000000000000109                     I01000214421305111800000001639003410000001N181018940000000000000490511180000000081950000000000000000000000000000100001320811485SILVIA REGINA DE MORAIS                 AVENIDA SANTOS DUMONT  2103         1500ROSARINHO   52050500RECIFE         PE  01010000000000000000000000000000000000   000008
10210847762001315924800257892    00000011000000000000001271581012715810000000000000109                     I01000214590320111800000001639003410000001N181018940000000000000492011180000000032780000000000000000000000000000200081722036400BRUNO TAVARES ALVES DE MELO             RUA ESMERALDINO BANDEIR1001          178GRACAS      52011090RECIFE         PE  01010000000000000000000000000000000000   000009
10210847762001315924800257892    00000011000000000000001271593012715930000000000000109                     I01000214591705111800000001720003410000001N181018940000000000000520511180000000034400000000000000000000000000000100001992089485FLAVIO VIEIRA GADELHA DE ALBUQUERQUE    SERRITA                APTO 601       55JAQUEIRA    52050091RECIFE         PE  01010000000000000000000000000000000000   000010
10210847762001315924800257892    00000011000000000000001271701012717010000000000000109                     I01000214610905111800000001580503410000001N181018940000000000000480511180000000079025000000000000000000000000000200002651354430RODRIGO GOMES FERREIRA                  RUA LAURA CAMPELO      203           131TORRE       50710270RECIFE         PE  01010000000000000000000000000000000000   000011
10210847762001315924800257892    00000011000000000000001271711012717110000000000000109                     I01000214612005111800000001580503410000001N181018940000000000000480511180000000000000000000000000000000000000000100070258309415GUSTAVO FERREIRA SANTOS                 RUA JACOBINA           APTO 2102      45GRACAS      52011180RECIFE         PE  01010000000000000000000000000000000000   000012
10210847762001315924800257892    00000011000000000000001271722012717220000000000000109                     I01000214613905111800000001580503410000001N181018940000000000000480511180000000023707000000000000000000000000000200061124532404AMELIA DE CERQUEIRA JUDICE DOS SANTOS   RUA MONSENHOR SILVA    602           209MADALENA    50610360RECIFE         PE  01010000000000000000000000000000000000   000013
10210847762001315924800257892    00000011000000000000001271733012717330000000000000109                     I01000214615005111800000001580503410000001N181018940000000000000480511180000000079025000000000000000000000000000100000736881425HUGO ANDERSON COELHO VERAS DE SOUSA     RUA PADRE ROMA         1202          652TAMARINEIRA 52050150RECIFE         PE  01010000000000000000000000000000000000   000014
10210847762001315924800257892    00000011000000000000001271755012717550000000000000109                     I01000214617505111800000001639003410000001N181018940000000000000490511180000000000000000000000000000000000000000200032796781453ANGELA CAVALCANTI MELO                  RUA PROFESSOR SOUTO MAIAPT206         33CASA AMARELA52051240RECIFE         PE  01010000000000000000000000000000000000   000015
10210847762001315924800257892    00000011000000000000001271784012717840000000000000109                     I01000214623405111800000002090003410000001N181018940000000000000630511180000000020900000000000000000000000000000200068821352404EVA VALENCA PIO DOS SANTOS              RUA ANTONIO VALDEVINO C104 BL 01      94CORDEIRO    50640040RECIFE         PE  01010000000000000000000000000000000000   000016
10210847762001315924800257892    00000011000000000000001275511012755110000000000000109                     I01000001087205111800000000626023410000001N181018940000000000000190511180000000000000000000000000000000000000000200002449459421LUCIANA PAULA BARROCA                   RUA DA ESTRELA         1601           52CASA AMARELA52060160RECIFE         PE  00000000000000000000000000000000000000   000017
10210847762001315924800257892    00000011000000000000001278261012782610000000000000109                     I01000215340505111800000001580503410000001N181018940000000000000480511180000000015805000000000000000000000000000200076961257453ALOYSIO SOARES DE AZEVEDO LEITE         RUA GUEDES PEREIRA     APTO1701      114CASA AMARELA52060150RECIFE         PE  01010000000000000000000000000000000000   000018
10210847762001315924800257892    00000011000000000000001278300012783000000000000000109                     I01000215345720111800000001639003410000001N181018940000000000000492011180000000081950000000000000000000000000000200069454639404ADRIANA MARIA BEZERRA LINS PEREIRA      AV DR MALAQUIAS        702           103GRACAS      52050060RECIFE         PE  01010000000000000000000000000000000000   000019
10210847762001315924800257892    00000011000000000000001278311012783110000000000000109                     I01000215347405111800000001639003410000001N181018940000000000000490511180000000032780000000000000000000000000000200002158649488EDUARDO HENRIQUE CARVALHO BARROS        RUA DR OSVALDO SALSA   APTO 1401     100GRACAS      52011170RECIFE         PE  01010000000000000000000000000000000000   000020
10210847762001315924800257892    00000011000000000000001280275012802750000000000000109                     I01000215605405111800000001580503410000001N181018940000000000000480511180000000023707000000000000000000000000000200000764925407LEONARDO VAZ DE OLIVEIRA LUCENA         RUA PESSOA DE MELO     302           333MADALENA    50610220RECIFE         PE  01010000000000000000000000000000000000   000021
10210847762001315924800257892    00000011000000000000001280286012802860000000000000109                     I01000215606512111800000001580503410000001N181018940000000000000481211180000000063220000000000000000000000000000100005085404459LUCIANA MAIA GALVAO DE ANDRADE          DO FUTURO              306           800AFLITOS     52050010RECIFE         PE  01010000000000000000000000000000000000   000022
10210847762001315924800257892    00000011000000000000001280297012802970000000000000109                     I01000215607712111800000002090003410000001N181018940000000000000631211180000000020900000000000000000000000000000200018980287453ANGELO MARTINS CASTRO                   RUA BENFICA            CASA          926MADALENA    50720001RECIFE         PE  01010000000000000000000000000000000000   000023
10210847762001315924800257892    00000011000000000000001290886012908860000000000000109                     I01000216718620111800000001580503410000001N181018940000000000000482011180000000047415000000000000000000000000000200003921458471EDUARDO JOSE SOUTO BARROS               RUA ZEFERINO AGRA      CASA          307AGUA FRIA   52120180RECIFE         PE  01010000000000000000000000000000000000   000024
10210847762001315924800257892    00000011000000000000001297470012974700000000000000109                     I01000217496805111800000001580503410000001N181018940000000000000480511180000000031610000000000000000000000000000100003060801410TIBERIO BATISTA DE MEDEIROS             RUA AURELIO DOMINGUES  APT 3301 BL-  180TORRE       50710020RECIFE         PE  01010000000000000000000000000000000000   000025
10210847762001315924800257892    00000011000000000000001297550012975500000000000000109                     I01000213900705111800000001580503410000001N181018940000000000000480511180000000000000000000000000000000000000000100002614133418LUIZ FELIPE ALBANEZ FALCAO              RUA CONDE DE IRAJA     302           233TORRE       50710310RECIFE         PE  01010000000000000000000000000000000000   000026
10210847762001315924800257892    00000011000000000000001297571012975710000000000000109                     I01000213895905111800000001639003410000001N181018940000000000000490511180000000000000000000000000000000000000000100002614133418LUIZ FELIPE ALBANEZ FALCAO              RUA CONDE DE IRAJA     302           233TORRE       50710310RECIFE         PE  01010000000000000000000000000000000000   000027
10210847762001315924800257892    00000011000000000000001297598012975980000000000000109                     I01000217514405111800000001580503410000001N181018940000000000000480511180000000015805000000000000000000000000000200003473870471ANDREIA RODRIGUES CORREIA DE ASSIS      ESTRADA DO ARRAIAL     AP 701 B     3574CASA AMARELA52070230RECIFE         PE  01010000000000000000000000000000000000   000028
10210847762001315924800257892    00000011000000000000001298220012982200000000000000109                     I01000217625412111800000001580503410000001N181018940000000000000481211180000000031610000000000000000000000000000200003178520430FABIO HENRIQUE CAVALCANTI DE OLIVEIRA   RUA DOUTOR VICENTE MEIRAPT 1703      180ESPINHEIRO  52020130RECIFE         PE  01010000000000000000000000000000000000   000029
10210847762001315924800257892    00000011000000000000001298232012982320000000000000109                     I01000217626805111800000001639003410000001N181018940000000000000490511180000000032780000000000000000000000000000200094922136487RENATA AUXILIADORA ALBUQUERQUE CAVALCANTRUA DOM SEBASTIAO LEME 102           140GRACAS      52011160RECIFE         PE  01010000000000000000000000000000000000   000030
10210847762001315924800257892    00000011000000000000001298260012982600000000000000109                     I01000217629905111800000001639003410000001N181018940000000000000490511180000000032780000000000000000000000000000100082343446415KLEBER COELHO DA SILVA                  RUA DA AMIZADE         1702          161GRACAS      52011260RECIFE         PE  01010000000000000000000000000000000000   000031
10210847762001315924800257892    00000011000000000000001298325012983250000000000000109                     I01000217639805111800000001639003410000001N181018940000000000000490511180000000032780000000000000000000000000000100058776885453JOSE DIAS DA COSTA                      RUA AFONSO DE ALBUQUERQAPTO 1501      60SANTANA     52060450RECIFE         PE  01010000000000000000000000000000000000   000032
10210847762001315924800257892    00000011000000000000001298336012983360000000000000109                     I01000217641205111800000002090003410000001N181018940000000000000630511180000000041800000000000000000000000000000200003074303409MANUELA SOARES PEDROZA                  AVENIDA RUI BARBOSA    702           779GRACAS      52011040RECIFE         PE  01010000000000000000000000000000000000   000033
10210847762001315924800257892    00000011000000000000001298342012983420000000000000109                     I01000217642205111800000002090003410000001N181018940000000000000630511180000000041800000000000000000000000000000100002256547418IZABELLE MARIA DOURADO DA COSTA ALBUQUERRUA AMARO COUTINHO     APTO 1701- A  623ROSARINHO   52041305RECIFE         PE  01010000000000000000000000000000000000   000034
10210847762001315924800257892    00000011000000000000001298428012984280000000000000109                     I01000217661405111800000002090003410000001N181018940000000000000630511180000000041800000000000000000000000000000200082264635487PAULO RICARDO SPINELLI GOMES            RUA FERREIRA LOPES     202           313CASA AMARELA52060200RECIFE         PE  01010000000000000000000000000000000000   000035
10210847762001315924800257892    00000011000000000000001321057013210570000000000000109                     I01000220188820111800000001580503410000001N181018940000000000000482011180000000047415000000000000000000000000000200004285079488SAULO AUGUSTO DE MELO HATEM             RUA ZEFERINO AGRA                    307ARRUDA      52120180RECIFE         PE  01010000000000000000000000000000000000   000036
10210847762001315924800257892    00000011000000000000001321201013212010000000000000109                     I01000220230105111800000001639003410000001N181018940000000000000490511180000000032780000000000000000000000000000100000202305406KASSIA REGINA AZEVEDO OLIVEIRA VILAR    RUA DR ENEAS DE LUCENA 1801          265ROSARINHO   42041090RECIFE         PE  01010000000000000000000000000000000000   000037
10210847762001315924800257892    00000011000000000000001321213013212130000000000000109                     I01000001154105111800000000896353410000001N181018940000000000000270511180000000000000000000000000000000000000000100000224059335JOAO BOSCO BARRETO COUTO NETO           RUA SAMUEL CAMPELO     APTO 1901     380AFLITOS     52050042RECIFE         PE  00000000000000000000000000000000000000   000038
10210847762001315924800257892    00000011000000000000001321225013212250000000000000109                     I01000001155305111800000000896353410000001N181018940000000000000270511180000000000000000000000000000000000000000100065669304349LAYSE DE MORAIS MILANEZ COUTO           RUA GENERAL LAGES      APTO 702     1555JOQUEI      64048350TERESINA       PI  00000000000000000000000000000000000000   000039
10210847762001315924800257892    00000011000000000000001326845013268450000000000000109                     I01000221029505111800000001580503410000001N181018940000000000000480511180000000015805000000000000000000000000000200063399938500PHILIP AMARAL SOUTO                     AVENIDA DOUTOR MALAQUIA2401          195GRACAS      52050060RECIFE         PE  01010000000000000000000000000000000000   000040
10210847762001315924800257892    00000011000000000000001326853013268530000000000000109                     I01000221030505111800000001720003410000001N181018940000000000000520511180000000051600000000000000000000000000000100066619033415ANDREIA CARLA SOUZA GUEDES              RUA PROFESSOR ANTONIO ACASA          222CORDEIRO    50630620RECIFE         PE  01010000000000000000000000000000000000   000041
10210847762001315924800257892    00000011000000000000001329211013292110000000000000109                     I01000221311105111800000001720003410000001N181018940000000000000520511180000000051600000000000000000000000000000200057878315434SERGIO PEDRO XAVIER NETO                RUA CAPITAO SAMPAIO XAV301           205GRACAS      52050217RECIFE         PE  01010000000000000000000000000000000000   000042
10210847762001315924800257892    00000011000000000000001369419013694190000000000000109                     I01000226390205111800000001580503410000001N181018940000000000000480511180000000015805000000000000000000000000000100006442783405RAQUEL CARVALHO FERREIRA LIMA           GOV AGAMENON MAGALHAES APT 402       129TORREAO     52030210RECIFE         PE  01010000000000000000000000000000000000   000043
10210847762001315924800257892    00000011000000000000001369424013694240000000000000109                     I01000226390705111800000001580503410000001N181018940000000000000480511180000000007902000000000000000000000000000200004619816450NATASHA KATER PIRES                     RUA ANIBAL FALCAO      CASA           56GRACAS      52011150RECIFE         PE  01010000000000000000000000000000000000   000044
10210847762001315924800257892    00000011000000000000001384347013843470000000000000109                     I01000001236005111800000000626023410000001N181018940000000000000190511180000000000000000000000000000000000000000200005146400490PAULA ARARUNA BERTAO DE ANDRADE LIMA    RUA MONSENHOR SILVA    1501          223MADALENA    50610360RECIFE         PE  00000000000000000000000000000000000000   000045
10210847762001315924800257892    00000011000000000000001419076014190760000000000000109                     I01000232966412111800000001720003410000001N181018940000000000000521211180000000000000000000000000000000000037710200040539512400ERMANO RODRIGUES DO NASCIMENTO          RUA XAVIER MARQUES     APTO 401      221GRACAS      52050230RECIFE         PE  01010000000000000000000000000000000000   000046
10210847762001315924800257892    00000011000000000000001424081014240810000000000000109                     I01000233477305111800000001580503410000001N181018940000000000000480511180000000000000000000000000000000000000000100002227838426LEONARDO DE PETRIBU RIBEIRO             RUA PAULINO GOMES DE SOAPT 1501 TO    50GRACAS      52050250RECIFE         PE  01010000000000000000000000000000000000   000047
10210847762001315924800257892    00000011000000000000001424082014240820000000000000109                     I01000233477405111800000001580503410000001N181018940000000000000480511180000000000000000000000000000000000000000100004602442480JULIANA DE CARVALHO SA                  RUA ZENOBIO LINS       CASA          170CORDEIRO    50711300RECIFE         PE  01010000000000000000000000000000000000   000048
10210847762001315924800257892    00000011000000000000001424083014240830000000000000109                     I01000233477505111800000001580503410000001N181018940000000000000480511180000000000000000000000000000000000000000100002217178466CRISTIANO GURGEL LOPES                  ESTRADA REAL DO POCO   CASA 02       494POCO        52061200RECIFE         PE  01010000000000000000000000000000000000   000049
10210847762001315924800257892    00000011000000000000001424084014240840000000000000109                     I01000233477605111800000001580503410000001N181018940000000000000480511180000000000000000000000000000000000000000100003051696455KIRLEY ANDREA FALCAO LEITE              RUA DO FONSECA         APT 1602      279ILHA DO RETI50750290RECIFE         PE  01010000000000000000000000000000000000   000050
10210847762001315924800257892    00000011000000000000001424085014240850000000000000109                     I01000233477705111800000001580503410000001N181018940000000000000480511180000000000000000000000000000000000000000100003945591422SERCIO FLAVNY BRANDAO DE MENEZES CORREIARUA MARECHAL RONDON    APTO 402      120CASA FORTE  52061055RECIFE         PE  01010000000000000000000000000000000000   000051
10210847762001315924800257892    00000011000000000000001424086014240860000000000000109                     I01000233477805111800000001580503410000001N181018940000000000000480511180000000000000000000000000000000000000000100003135819400LAURA MARIA COSTA DE CARVALHO ABREU     RUA DESEMBARGADOR MARTIAPT 1001       84ROSARINHO   52050565RECIFE         PE  01010000000000000000000000000000000000   000052
10210847762001315924800257892    00000011000000000000001424087014240870000000000000109                     I01000233477905111800000001580503410000001N181018940000000000000480511180000000000000000000000000000000000000000100089679580482IVAN CAVALCANTI DA SILVA                RUA FRIGIO LIMA        APT 302        85ESPINHEIRO  52021160RECIFE         PE  01010000000000000000000000000000000000   000053
10210847762001315924800257892    00000011000000000000001424088014240880000000000000109                     I01000233478005111800000001580503410000001N181018940000000000000480511180000000000000000000000000000000000000000100088139166472FERNANDO FERNANDES MENDONCA RIBEIRO     RUA ESTRELA            APT 1202      146CASA AMARELA52060160RECIFE         PE  01010000000000000000000000000000000000   000054
10210847762001315924800257892    00000011000000000000001424089014240890000000000000109                     I01000233478105111800000001580503410000001N181018940000000000000480511180000000000000000000000000000000000000000100004091329420JOAO EUDES DE CARVALHO                  RUA RAUL AZEDO         APT 402       205PINA        51011610RECIFE         PE  01010000000000000000000000000000000000   000055
10210847762001315924800257892    00000011000000000000001424090014240900000000000000109                     I01000233478205111800000001580503410000001N181018940000000000000480511180000000000000000000000000000000000000000100083125531420JOANA CAVALCANTI DE LIMA                RUA GUEDES PEREIRA     1602           77PARNAMIRIM  52060150RECIFE         PE  01010000000000000000000000000000000000   000056
10210847762001315924800257892    00000011000000000000001424091014240910000000000000109                     I01000233478305111800000001580503410000001N181018940000000000000480511180000000000000000000000000000000000000000100033648166115CARLOS MAGNO TORRES                     RUA CAIO PEREIRA       APTO 2101      30ROSARINHO   52041010RECIFE         PE  01010000000000000000000000000000000000   000057
10210847762001315924800257892    00000011000000000000001424092014240920000000000000109                     I01000233478405111800000001580503410000001N181018940000000000000480511180000000000000000000000000000000000000000200003879407401MARIA LIGIA PRIORI BARBOSA TAVARES DE SARUA SERRITA            APTO. 1101     55JAQUEIRA    52050091RECIFE         PE  01010000000000000000000000000000000000   000058
10210847762001315924800257892    00000011000000000000001424093014240930000000000000109                     I01000233478505111800000001580503410000001N181018940000000000000480511180000000000000000000000000000000000000000100002285894449CARLOS ALBERTO CAVALCANTI MARTINS       AVENIDA CONSELHEIRO ROS602          1438AFLITOS     52020220RECIFE         PE  01010000000000000000000000000000000000   000059
10210847762001315924800257892    00000011000000000000001424094014240940000000000000109                     I01000233478620111800000001580503410000001N181018940000000000000482011180000000000000000000000000000000000000000200043166695400MOISES ZARZAR CORREIA DE MELO           RUA FRIGIO LIMA        APTO. 904      85ESPINHEIRO  52021160RECIFE         PE  01010000000000000000000000000000000000   000060
10210847762001315924800257892    00000011000000000000001424095014240950000000000000109                     I01000233478712111800000001580503410000001N181018940000000000000481211180000000000000000000000000000000000000000100002826783440ELIZABETE CAVALCANTE                    RUA EVARISTO DA VEIGA  APT? 502      255CASA AMARELA52070100RECIFE         PE  01010000000000000000000000000000000000   000061
10210847762001315924800257892    00000011000000000000001424096014240960000000000000109                     I01000233478805111800000001580503410000001N181018940000000000000480511180000000000000000000000000000000000000000100084459174472DARLEY KLEBER TIMOTEO FLORENTINO        RUA CAIO PEREIRA       APTO 301       30ROSARINHO   52041045RECIFE         PE  01010000000000000000000000000000000000   000062
10210847762001315924800257892    00000011000000000000001424097014240970000000000000109                     I01000233478905111800000001580503410000001N181018940000000000000480511180000000000000000000000000000000000000000100058776885453JOSE DIAS DA COSTA                      RUA AFONSO DE ALBUQUERQAPTO 1501      60SANTANA     52060450RECIFE         PE  01010000000000000000000000000000000000   000063
10210847762001315924800257892    00000011000000000000001424098014240980000000000000109                     I01000233479005111800000001580503410000001N181018940000000000000480511180000000000000000000000000000000000000000100077222717404JOSE MARIO PESSOA BARRETO CAVALCANTI    RUA EVARISTO DA VEIGA  APT 2201      255CASA AMARELA52070100RECIFE         PE  01010000000000000000000000000000000000   000064
10210847762001315924800257892    00000011000000000000001424099014240990000000000000109                     I01000233479105111800000001580503410000001N181018940000000000000480511180000000000000000000000000000000000000000100090553683420PEDRO ANDRE CARVALHO ROSAS              RUA OCIDENTE                         600BONSUCESSO  53240101OLINDA         PE  01010000000000000000000000000000000000   000065
10210847762001315924800257892    00000011000000000000001424100014241000000000000000109                     I01000233479205111800000001580503410000001N181018940000000000000480511180000000000000000000000000000000000000000100078321816487EDUARDO RANIERE PESSOA DE AQUINO        DOM SEBASTIAO LEME     APT 501       140GRACAS      52011160RECIFE         PE  01010000000000000000000000000000000000   000066
10210847762001315924800257892    00000011000000000000001424101014241010000000000000109                     I01000233479305111800000001639003410000001N181018940000000000000490511180000000000000000000000000000000000000000100003088666495ANA CRISTINA BEZERRA CAVALCANTI DE AVELLRUA DO FUTURO          APT. 601       96GRACAS      52050005RECIFE         PE  01010000000000000000000000000000000000   000067
10210847762001315924800257892    00000011000000000000001424102014241020000000000000109                     I01000233479405111800000001639003410000001N181018940000000000000490511180000000049170000000000000000000000000000100051020050497ADRIANA MARIA DAS NEVES                 RUA JOSE DE HOLANDA    APTO 301 C    824TORRE       50710140RECIFE         PE  01010000000000000000000000000000000000   000068
10210847762001315924800257892    00000011000000000000001424103014241030000000000000109                     I01000233479505111800000001639003410000001N181018940000000000000490511180000000000000000000000000000000000000000100045556474400HELIO CORDEIRO MANSO FILHO              DO ENTRONCAMENTO       APTO 501       50GRACAS      52011300RECIFE         PE  01010000000000000000000000000000000000   000069
10210847762001315924800257892    00000011000000000000001424104014241040000000000000109                     I01000233479605111800000001639003410000001N181018940000000000000490511180000000000000000000000000000000000000000200002758347431DANIELLA BOLD CARNEIRO MONTEIRO         RUA PESSOA DE MELO     APTO 1902     333MADALENA    50610220RECIFE         PE  01010000000000000000000000000000000000   000070
10210847762001315924800257892    00000011000000000000001424105014241050000000000000109                     I01000233479705111800000001639003410000001N181018940000000000000490511180000000000000000000000000000000000000000100075619954404CRISTIANNE MACEDO DE FREITAS            RUA TENENTE AGRIPINO   CASA           15CAMPO GRANDE52040040RECIFE         PE  01010000000000000000000000000000000000   000071
10210847762001315924800257892    00000011000000000000001424106014241060000000000000109                     I01000233479805111800000001639003410000001N181018940000000000000490511180000000000000000000000000000000000000000100078487846491LIVIA BRELAZ CALADO                     RUA AMARO COUTINHO     APTO 602 BL   623ROSARINHO   52041305RECIFE         PE  01010000000000000000000000000000000000   000072
10210847762001315924800257892    00000011000000000000001424107014241070000000000000109                     I01000233479905111800000001639003410000001N181018940000000000000490511180000000000000000000000000000000000000000100002219752410CRISTIANA MONTEIRO SILVA COSTA          RUA JACOBINA           1301          130GRACAS      52011180RECIFE         PE  01010000000000000000000000000000000000   000073
10210847762001315924800257892    00000011000000000000001424108014241080000000000000109                     I01000233480005111800000001639003410000001N181018940000000000000490511180000000000000000000000000000000000000000100001971469459ALINA FARIAS FRANCA DE OLIVEIRA         AVENIDA MINISTRO MARCOSAPTO 1601    3863CASA CAIADA 53040085OLINDA         PE  01010000000000000000000000000000000000   000074
10210847762001315924800257892    00000011000000000000001424109014241090000000000000109                     I01000233480105111800000001639003410000001N181018940000000000000490511180000000000000000000000000000000000000000100001971469459ALINA FARIAS FRANCA DE OLIVEIRA         AVENIDA MINISTRO MARCOSAPTO 1601    3863CASA CAIADA 53040085OLINDA         PE  01010000000000000000000000000000000000   000075
10210847762001315924800257892    00000011000000000000001424110014241100000000000000109                     I01000233480205111800000001639003410000001N181018940000000000000490511180000000000000000000000000000000000000000100011337290459JOSEMARIO FRANCA DE SOUSA               RUA RIBEIRAO           APT 202       105IPUTINGA    50670210RECIFE         PE  01010000000000000000000000000000000000   000076
10210847762001315924800257892    00000011000000000000001424111014241110000000000000109                     I01000233480312111800000001639003410000001N181018940000000000000491211180000000000000000000000000000000000000000100002826783440ELIZABETE CAVALCANTE                    RUA EVARISTO DA VEIGA  APT? 502      255CASA AMARELA52070100RECIFE         PE  01010000000000000000000000000000000000   000077
10210847762001315924800257892    00000011000000000000001424112014241120000000000000109                     I01000233480405111800000001639003410000001N181018940000000000000490511180000000000000000000000000000000000000000100079012604400REGINALDO CABRAL ACIOLY NETO            RUA JOSE DE HOLANDA    APT 1201      485TORRE       50710140RECIFE         PE  01010000000000000000000000000000000000   000078
10210847762001315924800257892    00000011000000000000001424113014241130000000000000109                     I01000233480505111800000001695003410000001N181018940000000000000510511180000000000000000000000000000000000000000100037761757453ADRIANO LEITE MORAES                    RUA DOM MANOEL DA COSTA              108TORRE       50710375RECIFE         PE  01010000000000000000000000000000000000   000079
10210847762001315924800257892    00000011000000000000001424114014241140000000000000109                     I01000233480605111800000001720003410000001N181018940000000000000520511180000000000000000000000000000000000860000100086330675449GISELE VIDAL ALMEIDA                    SILVEIRA DE CARVALHO               160 BTAMARINEIRA 52110060RECIFE         PE  01010000000000000000000000000000000000   000080
10210847762001315924800257892    00000011000000000000001424115014241150000000000000109                     I01000233480705111800000001720003410000001N181018940000000000000520511180000000051600000000000000000000000000000100051020050497ADRIANA MARIA DAS NEVES                 RUA JOSE DE HOLANDA    APTO 301 C    824TORRE       50710140RECIFE         PE  01010000000000000000000000000000000000   000081
10210847762001315924800257892    00000011000000000000001424116014241160000000000000109                     I01000233480805111800000001720003410000001N181018940000000000000520511180000000000000000000000000000000000000000100003409189424MARCOS ANTONIO VELOSO COUTINHO          MARIA EMILIA REFIS CAVA               66BARRO       52050020TIMBAUBA       PE  01010000000000000000000000000000000000   000082
10210847762001315924800257892    00000011000000000000001424118014241180000000000000109                     I01000233481005111800000001720003410000001N181018940000000000000520511180000000000000000000000000000000000000000100028185609420EVALDO SANTANA DE SOUZA                 RUA 13 DE MAIO                       912SANTO AMARO 52050390RECIFE         PE  01010000000000000000000000000000000000   000083
10210847762001315924800257892    00000011000000000000001424119014241190000000000000109                     I01000233481105111800000001580503410000001N181018940000000000000480511180000000000000000000000000000000000000000100089058763404EIMAR CAVALCANTI DE MORAIS FILHO        AVENIDA 17 DE AGOSTO   APT 1302     2720MONTEIRO    52061540RECIFE         PE  01010000000000000000000000000000000000   000084
10210847762001315924800257892    00000011000000000000001424120014241200000000000000109                     I01000233481205111800000001580503410000001N181018940000000000000480511180000000000000000000000000000000000000000100002101321408JOSE PEDRO DE QUEIROZ FIGUEIREDO JUNIOR RUA AMARAJI            APT 901        80SANTANA     52060440RECIFE         PE  01010000000000000000000000000000000000   000085
10210847762001315924800257892    00000011000000000000001424121014241210000000000000109                     I01000233481305111800000001580503410000001N181018940000000000000480511180000000000000000000000000000000000000000100002096260469ERIKA RABELO FORTE DE SIQUEIRA          CONSELHEIROPORTELA     APT 501       169GRACAS      52020212RECIFE         PE  01010000000000000000000000000000000000   000086
10210847762001315924800257892    00000011000000000000001424122014241220000000000000109                     I01000233481405111800000001580503410000001N181018940000000000000480511180000000000000000000000000000000000000000200002680716400MARCAL DURVAL SIQUEIRA PAIVA JUNIOR     RUA SAO SALVADOR       APTO 901      105ESPINHEIRO  52020200RECIFE         PE  01010000000000000000000000000000000000   000087
10210847762001315924800257892    00000011000000000000001424123014241230000000000000109                     I01000233481505111800000001580503410000001N181018940000000000000480511180000000000000000000000000000000000000000200000969784490ROSANE ROSALIE NASCIMENTO E SILVA       AVENIDA CONSUL JOSEPH NAPT 302        78PINA        51110150RECIFE         PE  01010000000000000000000000000000000000   000088
10210847762001315924800257892    00000011000000000000001424124014241240000000000000109                     I01000233481605111800000001580503410000001N181018940000000000000480511180000000000000000000000000000000000000000200004175951407JANAINA PEREIRA LIMA                    RUA DO ESPINHEIRO      APTO  701-A   690ESPINHEIRO  52020025RECIFE         PE  01010000000000000000000000000000000000   000089
10210847762001315924800257892    00000011000000000000001424125014241250000000000000109                     I01000233481705111800000001580503410000001N181018940000000000000480511180000000000000000000000000000000000000000200089948475453LUCIANA DE ANDRADE SCHULER              RUA DOUTOR VICENTE MEIRAPTO 302      180ESPINHEIRO  52020130RECIFE         PE  01010000000000000000000000000000000000   000090
10210847762001315924800257892    00000011000000000000001424126014241260000000000000109                     I01000233481805111800000001580503410000001N181018940000000000000480511180000000000000000000000000000000000000000100009036271401POLLYANNA KELLY SALVADOR DE FREITAS ARAUAV. HIDELBRANDO DE VASCCASA          569BEBERIBE    52140000RECIFE         PE  01010000000000000000000000000000000000   000091
10210847762001315924800257892    00000011000000000000001424127014241270000000000000109                     I01000233481905111800000001580503410000001N181018940000000000000480511180000000000000000000000000000000000000000200002680716400MARCAL DURVAL SIQUEIRA PAIVA JUNIOR     RUA SAO SALVADOR       APTO 901      105ESPINHEIRO  52020200RECIFE         PE  01010000000000000000000000000000000000   000092
10210847762001315924800257892    00000011000000000000001424128014241280000000000000109                     I01000233482005111800000001580503410000001N181018940000000000000480511180000000000000000000000000000000000000000200005137189405HUGO LEONARDO CORREA NOGUEIRA           RUA DAS PERNAMBUCANAS  APTO 504      315GRACAS      52011010RECIFE         PE  01010000000000000000000000000000000000   000093
10210847762001315924800257892    00000011000000000000001424129014241290000000000000109                     I01000233482105111800000001580503410000001N181018940000000000000480511180000000000000000000000000000000000000000100003570038459MARIA JURACY MEIRELES DE MELO           AVENIDA RUI BARBOSA    APTO 606      579GRACAS      52011040RECIFE         PE  01010000000000000000000000000000000000   000094
10210847762001315924800257892    00000011000000000000001424130014241300000000000000109                     I01000233482205111800000001580503410000001N181018940000000000000480511180000000000000000000000000000000000000000200005229148454ANA CARLA MELO GOMES PEREIRA SOARES     RUA CARDEAL ARCOVERDE  APT 801 A      85GRACAS      52011240RECIFE         PE  01010000000000000000000000000000000000   000095
10210847762001315924800257892    00000011000000000000001424131014241310000000000000109                     I01000233482305111800000001580503410000001N181018940000000000000480511180000000000000000000000000000000000000000100004596631433EDUARDO VIEIRA DE CARVALHO JUNIOR       AVENIDA FORTE DO ARRAIACASA           90CORDEIRO    50721110RECIFE         PE  01010000000000000000000000000000000000   000096
10210847762001315924800257892    00000011000000000000001424132014241320000000000000109                     I01000233482405111800000001580503410000001N181018940000000000000480511180000000000000000000000000000000000000000100001273290488DEBORAH MARIA DE CASTRO BARBOSA LEAL    RUA DOM SEBASTIAO LEME APT 801        57GRACAS      52011160RECIFE         PE  01010000000000000000000000000000000000   000097
10210847762001315924800257892    00000011000000000000001424133014241330000000000000109                     I01000233482505111800000001580503410000001N181018940000000000000480511180000000000000000000000000000000000000000100002157522441CLAYTON SARAIVA ALCANTARA               RUA JOSE DE HOLANDA    APTO 2001,B   510TORRE       50710140RECIFE         PE  01010000000000000000000000000000000000   000098
10210847762001315924800257892    00000011000000000000001424134014241340000000000000109                     I01000233482605111800000001580503410000001N181018940000000000000480511180000000000000000000000000000000000000000200004635463427KARINE STUPP MONTEIRO DE ALMEIDA        AVENIDA GOVERNADOR AGAMAP1101       2714ESPINHEIRO  52020000RECIFE         PE  01010000000000000000000000000000000000   000099
10210847762001315924800257892    00000011000000000000001424135014241350000000000000109                     I01000233482705111800000001580503410000001N181018940000000000000480511180000000000000000000000000000000000000000200007416723400ELAINE BATISTA FERREIRA DA SILVA        RUA ENGENHEIRO TEOFILO APTO 701       30DERBY       52010190RECIFE         PE  01010000000000000000000000000000000000   000100
10210847762001315924800257892    00000011000000000000001424136014241360000000000000109                     I01000233482805111800000001580503410000001N181018940000000000000480511180000000000000000000000000000000000000000100007442257445DIOGO LOPES TAVARES DE MELO             FERREIRA LOPES         APTO 1002     313PARNAMIRIM  52060200RECIFE         PE  01010000000000000000000000000000000000   000101
10210847762001315924800257892    00000011000000000000001424137014241370000000000000109                     I01000233482905111800000001580503410000001N181018940000000000000480511180000000000000000000000000000000000000000200002638278440EZEQUIEL GARCEZ AMORIM                  RUA JOSE NOGUEIRA      APT 802        44IMBIRIBEIRA 51170390RECIFE         PE  01010000000000000000000000000000000000   000102
10210847762001315924800257892    00000011000000000000001424138014241380000000000000109                     I01000233483005111800000001580503410000001N181018940000000000000480511180000000000000000000000000000000000000000200005196135464MARIA CLARA DO REGO MACIEL SOUTO MAIOR  RUA CEARA              APTO 1201     121ENCRUZILHADA52041130RECIFE         PE  01010000000000000000000000000000000000   000103
10210847762001315924800257892    00000011000000000000001424139014241390000000000000109                     I01000233483105111800000001580503410000001N181018940000000000000480511180000000000000000000000000000000000000000200002353345450LUIZ ARTUR GUEDES MARQUES               AVENIDA MINISTRO MARCOSAPT 3102     3341CASA CAIADA 53130540OLINDA         PE  01010000000000000000000000000000000000   000104
10210847762001315924800257892    00000011000000000000001424140014241400000000000000109                     I01000233483205111800000001580503410000001N181018940000000000000480511180000000000000000000000000000000000000000100002565004443ANTONIO VICTOR TENORIO MUNIZ            RUA AFONSO DE ALBUQUERQ401           420SANTANA     52060450RECIFE         PE  01010000000000000000000000000000000000   000105
10210847762001315924800257892    00000011000000000000001424141014241410000000000000109                     I01000233483305111800000001580503410000001N181018940000000000000480511180000000000000000000000000000000000000000200000997822430REINALDO MELO SOARES                    RUA PESSOA DE MELO     APTO 1102      85MADALENA    50610220RECIFE         PE  01010000000000000000000000000000000000   000106
10210847762001315924800257892    00000011000000000000001424142014241420000000000000109                     I01000233483405111800000001580503410000001N181018940000000000000480511180000000000000000000000000000000000000000200002915148473EULALIA MARIA MOURA DE SORDI            RUA FREI JABOATAO      APTO 1801     180TORRE       50710030RECIFE         PE  01010000000000000000000000000000000000   000107
10210847762001315924800257892    00000011000000000000001424143014241430000000000000109                     I01000233483505111800000001580503410000001N181018940000000000000480511180000000000000000000000000000000000000000100004098953420ARTHUR LUIS ALVES FRAZAO DE CARVALHO    RUA CEARA              APTO 404      148ENCRUZILHADA52041130RECIFE         PE  01010000000000000000000000000000000000   000108
10210847762001315924800257892    00000011000000000000001424144014241440000000000000109                     I01000233483605111800000001580503410000001N181018940000000000000480511180000000000000000000000000000000000000000100005206609439LUCIANO DE MELO JUNIOR                  AV 17 AGOSTO           APTO         2483MONTEIRO    52061540RECIFE         PE  01010000000000000000000000000000000000   000109
10210847762001315924800257892    00000011000000000000001424145014241450000000000000109                     I01000233483705111800000001580503410000001N181018940000000000000480511180000000000000000000000000000000000000000100003912794405IZABEL TATIANA BEZERRA DA SILVA         RUA AFONSO CELSO       APT 1402      182TAMARINEIRA 52060110RECIFE         PE  01010000000000000000000000000000000000   000110
10210847762001315924800257892    00000011000000000000001424146014241460000000000000109                     I01000233483805111800000001580503410000001N181018940000000000000480511180000000000000000000000000000000000000000200006971236424MARIA REGINA DE LIMA GULDE MENDONCA     RUA PADRE ROMA         APT 1601      291PARNAMIRIM  52060060RECIFE         PE  01010000000000000000000000000000000000   000111
10210847762001315924800257892    00000011000000000000001424147014241470000000000000109                     I01000233483905111800000001580503410000001N181018940000000000000480511180000000000000000000000000000000000000000100004310791450PAULA REJANE DE MOURA                   RUA AMARO COUTINHO     1202          531ROSARINHO   52041305RECIFE         PE  01010000000000000000000000000000000000   000112
10210847762001315924800257892    00000011000000000000001424148014241480000000000000109                     I01000233484005111800000001580503410000001N181018940000000000000480511180000000000000000000000000000000000000000200002917710411ALINE CAVALCANTI DA COSTA               RUA AFONSO DE ALBUQUERQAPT 502        60SANTANA     52060450RECIFE         PE  01010000000000000000000000000000000000   000113
10210847762001315924800257892    00000011000000000000001424149014241490000000000000109                     I01000233484105111800000001580503410000001N181018940000000000000480511180000000000000000000000000000000000000000200000740943430AMANDA MARIA TORRES GALINDO DE CARVALHO RUA CONSELHEIRO NABUCO 502           360CASA AMARELA52070010RECIFE         PE  01010000000000000000000000000000000000   000114
10210847762001315924800257892    00000011000000000000001424150014241500000000000000109                     I01000233484205111800000001580503410000001N181018940000000000000480511180000000000000000000000000000000000000000100005418039482SAMPSON DE ALENCAR PEREIRA JUNIOR       AVENIDA FLOR DE SANTANAAPTO 701      190PARNAMIRIM  52060290RECIFE         PE  01010000000000000000000000000000000000   000115
10210847762001315924800257892    00000011000000000000001424151014241510000000000000109                     I01000233484305111800000001580503410000001N181018940000000000000480511180000000000000000000000000000000000000000100000742730433RICARDO AUGUSTO DE BARROS CAMPELO       RUA GENERAL ABREU E LIMAPT? 3201     144TAMARINEIRA 52041041RECIFE         PE  01010000000000000000000000000000000000   000116
10210847762001315924800257892    00000011000000000000001424152014241520000000000000109                     I01000233484405111800000001580503410000001N181018940000000000000480511180000000000000000000000000000000000000000100064127923334ELMO CANDIDO CARNEIRO NETO              RUA HEITOR MAIA FILHO  APT 1104      100MADALENA    50720525RECIFE         PE  01010000000000000000000000000000000000   000117
10210847762001315924800257892    00000011000000000000001424153014241530000000000000109                     I01000233484505111800000001580503410000001N181018940000000000000480511180000000000000000000000000000000000000000200012690562472CARLOS ALBERTO CUNHA MIRANDA            RUA DO FUTURO          APT 302       255GRACAS      52050005RECIFE         PE  01010000000000000000000000000000000000   000118
10210847762001315924800257892    00000011000000000000001424154014241540000000000000109                     I01000233484605111800000001580503410000001N181018940000000000000480511180000000000000000000000000000000000000000200031919960449FIDELIS FERREIRA AMORIM                 RUA CAIO PEREIRA       402          0334ENCRUZILHADA52041017RECIFE         PE  01010000000000000000000000000000000000   000119
10210847762001315924800257892    00000011000000000000001424155014241550000000000000109                     I01000233484705111800000001580503410000001N181018940000000000000480511180000000000000000000000000000000000000000200001123985456MARCELLE RIBEIRO LIMEIRA                RUA DR GENARO GUIMARAESAPTO 1601     145CASA AMARELA52070040RECIFE         PE  01010000000000000000000000000000000000   000120
10210847762001315924800257892    00000011000000000000001424156014241560000000000000109                     I01000233484805111800000001580503410000001N181018940000000000000480511180000000000000000000000000000000000000000100003484895446ROBERTO MEDEIROS LINS JUNIOR            RUA DO BOM PASTOR      AP 002       1485ENGENHO DO M        RECIFE         PE  01010000000000000000000000000000000000   000121
10210847762001315924800257892    00000011000000000000001424157014241570000000000000109                     I01000233484905111800000001580503410000001N181018940000000000000480511180000000000000000000000000000000000000000200002915148473EULALIA MARIA MOURA DE SORDI            RUA FREI JABOATAO      APTO 1801     180TORRE       50710030RECIFE         PE  01010000000000000000000000000000000000   000122
10210847762001315924800257892    00000011000000000000001424158014241580000000000000109                     I01000233485005111800000001580503410000001N181018940000000000000480511180000000000000000000000000000000000000000100004318311490ARTHUR HENRIQUE RIBEIRO DO VALLE DE FARIRUA DOM JOAO DE SOUZA  APTO 901      122MADALENA    50610070RECIFE         PE  01010000000000000000000000000000000000   000123
10210847762001315924800257892    00000011000000000000001424159014241590000000000000109                     I01000233485105111800000001580503410000001N181018940000000000000480511180000000000000000000000000000000000000000200089948475453LUCIANA DE ANDRADE SCHULER              RUA DOUTOR VICENTE MEIRAPTO 302      180ESPINHEIRO  52020130RECIFE         PE  01010000000000000000000000000000000000   000124
10210847762001315924800257892    00000011000000000000001424160014241600000000000000109                     I01000233485205111800000001580503410000001N181018940000000000000480511180000000000000000000000000000000000000000200004664684401MARCELO ERNESTO LUCKWU FERRAZ           RUA TELES JUNIOR       APT901        230ENCRUZILHADA52050387RECIFE         PE  01010000000000000000000000000000000000   000125
10210847762001315924800257892    00000011000000000000001424161014241610000000000000109                     I01000233485305111800000001580503410000001N181018940000000000000480511180000000031610000000000000000000000000000100002448768439FERNANDA MARIA CARDOSO MENDONCA         TITO ROSAS             APTO 502      152PARNAMIRIM  52060050RECIFE         PE  01010000000000000000000000000000000000   000126
10210847762001315924800257892    00000011000000000000001424162014241620000000000000109                     I01000233485405111800000001580503410000001N181018940000000000000480511180000000000000000000000000000000000000000200003748880430ETTORE LABANCA                          RUA ANDRE REBOUCAS     2402           45ENCRUZILHADA52041030RECIFE         PE  01010000000000000000000000000000000000   000127
10210847762001315924800257892    00000011000000000000001424163014241630000000000000109                     I01000233485505111800000001580503410000001N181018940000000000000480511180000000000000000000000000000000000000000100000830050566DEOCLIDES LIMA BEZERRA JUNIOR           AVENIDA BEIRA RIO      APT 202       590GRACAS      52011055RECIFE         PE  01010000000000000000000000000000000000   000128
10210847762001315924800257892    00000011000000000000001424164014241640000000000000109                     I01000233485620111800000001580503410000001N181018940000000000000482011180000000000000000000000000000000000000000100002627534483ANA PAULA FRANCISCA DA SILVA            RUA DO FUTURO          APTO 701       10GRACAS      52050005RECIFE         PE  01010000000000000000000000000000000000   000129
10210847762001315924800257892    00000011000000000000001424165014241650000000000000109                     I01000233485705111800000001580503410000001N181018940000000000000480511180000000000000000000000000000000000000000200003866446403MAURICIO EDGAR REGUEIRA GOMES PENNA NETOAVENIDA RECIFE         CASA          948AREIAS      50860000RECIFE         PE  01010000000000000000000000000000000000   000130
10210847762001315924800257892    00000011000000000000001424166014241660000000000000109                     I01000233485805111800000001580503410000001N181018940000000000000480511180000000000000000000000000000000000000000200004761664460FRANCISCO TIBERIO BARBOSA DE LIMA       RUA CEARA              APT 303       121ENCRUZILHADA52041130RECIFE         PE  01010000000000000000000000000000000000   000131
10210847762001315924800257892    00000011000000000000001424167014241670000000000000109                     I01000233485905111800000001580503410000001N181018940000000000000480511180000000000000000000000000000000000000000200003398629474ERICA DUARTE SUASSUNA CAVALCANTI        RUA DEMOCRITO DE SOUZA APTO 201      156MADALENA    50610120RECIFE         PE  01010000000000000000000000000000000000   000132
10210847762001315924800257892    00000011000000000000001424168014241680000000000000109                     I01000233486005111800000001580503410000001N181018940000000000000480511180000000000000000000000000000000000000000100083255885434MARIA CANDIDA CAPIBERIBE MAIA CAVALCANTIRUA BARAO DE ITAMARACA APT 1602      355ESPINHEIRO  52020070RECIFE         PE  01010000000000000000000000000000000000   000133
10210847762001315924800257892    00000011000000000000001424169014241690000000000000109                     I01000233486112111800000001580503410000001N181018940000000000000481211180000000000000000000000000000000000000000100048841021420JOSE HAILTON ARRUDA DE ARAUJO           RUA DA AMIZADE         APTO 502      109GRACAS      52011260RECIFE         PE  01010000000000000000000000000000000000   000134
10210847762001315924800257892    00000011000000000000001424170014241700000000000000109                     I01000233486205111800000001580503410000001N181018940000000000000480511180000000000000000000000000000000000000000200005351034417DIEGO TAVARES DE SOUZA                  RUA ADEMAR PIRES TRAVASAP 205A       435IPUTINGA    50670060RECIFE         PE  01010000000000000000000000000000000000   000135
10210847762001315924800257892    00000011000000000000001424171014241710000000000000109                     I01000233486305111800000001580503410000001N181018940000000000000480511180000000000000000000000000000000000000000100004963324490MARCO AURELIO GOMES ARAUJO              RUA NETO MENDONCA      802           170TAMARINEIRA 52050100RECIFE         PE  01010000000000000000000000000000000000   000136
10210847762001315924800257892    00000011000000000000001424172014241720000000000000109                     I01000233486405111800000001580503410000001N181018940000000000000480511180000000000000000000000000000000000000000200003088322486RODRIGO CHAVES PEIXOTO                  RUA DO FUTURO          602           611GRACAS      52050005RECIFE         PE  01010000000000000000000000000000000000   000137
10210847762001315924800257892    00000011000000000000001424173014241730000000000000109                     I01000233486505111800000001580503410000001N181018940000000000000480511180000000000000000000000000000000000000000200092083650425WAGNER GERMANO DA CUNHA                 RUA ISAAC SALAZAR      AP 1701-B     130TAMARINEIRA 52060105RECIFE         PE  01010000000000000000000000000000000000   000138
10210847762001315924800257892    00000011000000000000001424174014241740000000000000109                     I01000233486605111800000001580503410000001N181018940000000000000480511180000000000000000000000000000000000000000100003097607471MARIANA GUEDES ALMINO VALENCA           AVENIDA SANTOS DUMONT  APT 2003      530AFLITOS     52050050RECIFE         PE  01010000000000000000000000000000000000   000139
10210847762001315924800257892    00000011000000000000001424175014241750000000000000109                     I01000233486705111800000001580503410000001N181018940000000000000480511180000000000000000000000000000000000000000100001273290488DEBORAH MARIA DE CASTRO BARBOSA LEAL    RUA DOM SEBASTIAO LEME APT 801        57GRACAS      52011160RECIFE         PE  01010000000000000000000000000000000000   000140
10210847762001315924800257892    00000011000000000000001424176014241760000000000000109                     I01000233486812111800000001580503410000001N181018940000000000000481211180000000000000000000000000000000000000000200002411426445AMERICA DE ARAUJO PALMEIRA              RUA SAO SALVADOR       APTO 302      105ESPINHEIRO  52020200RECIFE         PE  01010000000000000000000000000000000000   000141
10210847762001315924800257892    00000011000000000000001424177014241770000000000000109                     I01000233486905111800000001580503410000001N181018940000000000000480511180000000000000000000000000000000000000000200003934484441JOAO BRUNO MAGALHAES OLIVEIRA ROMA      RUA BRUNO MAIA         APT 1001      150GRACAS      52011110RECIFE         PE  01010000000000000000000000000000000000   000142
10210847762001315924800257892    00000011000000000000001424178014241780000000000000109                     I01000233487005111800000001580503410000001N181018940000000000000480511180000000000000000000000000000000000000000100009159657472MARIA DO SOCORRO MARINHO ALVES DE CARVALJOSE HIGINO            APTO 102      221MADALENA    50610340RECIFE         PE  01010000000000000000000000000000000000   000143
10210847762001315924800257892    00000011000000000000001424179014241790000000000000109                     I01000233487105111800000001580503410000001N181018940000000000000480511180000000000000000000000000000000000000000200005203711437JULIE DE SOUSA CORDEIRO                 RUA PESSOA DE MELO     APTO  201      65MADALENA    50610220RECIFE         PE  01010000000000000000000000000000000000   000144
10210847762001315924800257892    00000011000000000000001424180014241800000000000000109                     I01000233487220111800000001580503410000001N181018940000000000000482011180000000000000000000000000000000000000000200043166695400MOISES ZARZAR CORREIA DE MELO           RUA FRIGIO LIMA        APTO. 904      85ESPINHEIRO  52021160RECIFE         PE  01010000000000000000000000000000000000   000145
10210847762001315924800257892    00000011000000000000001424181014241810000000000000109                     I01000233487305111800000001580503410000001N181018940000000000000480511180000000000000000000000000000000000000000200003856681477PRISCILA ARAUJO FERRAZ                  RUA PROFESSORA ANUNCIADAPT 103       116MADALENA    50710390RECIFE         PE  01010000000000000000000000000000000000   000146
10210847762001315924800257892    00000011000000000000001424182014241820000000000000109                     I01000233487405111800000001580503410000001N181018940000000000000480511180000000000000000000000000000000000000000200007567438429VIVIANE BRANCO WANDERLEY                RUA DE APIPUCOS        APT 1202       50APIPUCOS    52071000RECIFE         PE  01010000000000000000000000000000000000   000147
10210847762001315924800257892    00000011000000000000001424183014241830000000000000109                     I01000233487505111800000001580503410000001N181018940000000000000480511180000000000000000000000000000000000000000100002638379476FELICIANO LYRA MOURA                    RUA TELES JUNIOR       APT 602       350ROSARINHO   52050505RECIFE         PE  01010000000000000000000000000000000000   000148
10210847762001315924800257892    00000011000000000000001424184014241840000000000000109                     I01000233487605111800000001580503410000001N181018940000000000000480511180000000000000000000000000000000000000000100083255885434MARIA CANDIDA CAPIBERIBE MAIA CAVALCANTIRUA BARAO DE ITAMARACA APT 1602      355ESPINHEIRO  52020070RECIFE         PE  01010000000000000000000000000000000000   000149
10210847762001315924800257892    00000011000000000000001424185014241850000000000000109                     I01000233487705111800000001580503410000001N181018940000000000000480511180000000000000000000000000000000000000000100000829522484JOAO MARCELO ANDRADE DE OLIVEIRA        RUA CAPITAO REBELINHO  APT 1901      580PINA        51011010RECIFE         PE  01010000000000000000000000000000000000   000150
10210847762001315924800257892    00000011000000000000001424186014241860000000000000109                     I01000233487805111800000001580503410000001N181018940000000000000480511180000000000000000000000000000000000000000100058776885453JOSE DIAS DA COSTA                      RUA AFONSO DE ALBUQUERQAPTO 1501      60SANTANA     52060450RECIFE         PE  01010000000000000000000000000000000000   000151
10210847762001315924800257892    00000011000000000000001424187014241870000000000000109                     I01000233487905111800000001580503410000001N181018940000000000000480511180000000000000000000000000000000000000000200004707563490JOAO PAULO FERREIRA DA COSTA            RUA REAL DA TORRE      APTO 901      825MADALENA    50710100RECIFE         PE  01010000000000000000000000000000000000   000152
10210847762001315924800257892    00000011000000000000001424188014241880000000000000109                     I01000233488005111800000001580503410000001N181018940000000000000480511180000000000000000000000000000000000000000200003532738481IANA COSTA FREITAS DE OLIVEIRA          RUA MONSENHOR AMBROSINOAPT 1401       60GRACAS      52011230RECIFE         PE  01010000000000000000000000000000000000   000153
10210847762001315924800257892    00000011000000000000001424189014241890000000000000109                     I01000233488105111800000001639003410000001N181018940000000000000490511180000000000000000000000000000000000000000100079487343415FERNANDO MENDES DE FREITAS FILHO        RUA TAPACURA           APTO 502A      75MONTEIRO    52061140RECIFE         PE  01010000000000000000000000000000000000   000154
10210847762001315924800257892    00000011000000000000001424190014241900000000000000109                     I01000233488205111800000001580503410000001N181018940000000000000480511180000000000000000000000000000000000000000100003950521496KYDSON ALVES DA SILVA                   RUA DOUTOR JOSE MARIA  APTO 1002 TO  900ROSARINHO   52041065RECIFE         PE  01010000000000000000000000000000000000   000155
10210847762001315924800257892    00000011000000000000001424191014241910000000000000109                     I01000233488305111800000001580503410000001N181018940000000000000480511180000000000000000000000000000000000000000200077222709487LAERCIO DE SOUZA RIBEIRO NETO           RUA VITORIANO PALHARES APT 803       218TORRE       50710190RECIFE         PE  01010000000000000000000000000000000000   000156
10210847762001315924800257892    00000011000000000000001424192014241920000000000000109                     I01000233488405111800000001580503410000001N181018940000000000000480511180000000000000000000000000000000000000000100004318311490ARTHUR HENRIQUE RIBEIRO DO VALLE DE FARIRUA DOM JOAO DE SOUZA  APTO 901      122MADALENA    50610070RECIFE         PE  01010000000000000000000000000000000000   000157
10210847762001315924800257892    00000011000000000000001424193014241930000000000000109                     I01000233488505111800000001580503410000001N181018940000000000000480511180000000000000000000000000000000000000000200003820974407SANTINO HERCULANO DE LIMA NETO          RUA PADRE ROMA         APT 601R      291TAMARINEIRA 52050150RECIFE         PE  01010000000000000000000000000000000000   000158
10210847762001315924800257892    00000011000000000000001424194014241940000000000000109                     I01000233488605111800000001580503410000001N181018940000000000000480511180000000000000000000000000000000000000000100004150348413MILENA LINS DE CERQUEIRA PORTO          ESTRADA DO ENCANAMENTO APTO 1201     608CASA FORTE  52007000RECIFE         PE  01010000000000000000000000000000000000   000159
10210847762001315924800257892    00000011000000000000001424195014241950000000000000109                     I01000233488705111800000001580503410000001N181018940000000000000480511180000000000000000000000000000000000000000200003822849413CAROLINE DE MORAIS ARAUJO GUENES        RUA DOUTOR JOSE MARIA  APT 1701 A    900ROSARINHO   52041065RECIFE         PE  01010000000000000000000000000000000000   000160
10210847762001315924800257892    00000011000000000000001424196014241960000000000000109                     I01000233488805111800000001580503410000001N181018940000000000000480511180000000000000000000000000000000000000000200000986328413REILHE LEITE SAMPAIO                    RUA PESSOA DE MELO     APTO  201      65MADALENA    50610220RECIFE         PE  01010000000000000000000000000000000000   000161
10210847762001315924800257892    00000011000000000000001424197014241970000000000000109                     I01000233488905111800000001580503410000001N181018940000000000000480511180000000000000000000000000000000000000000200004580067428RENATA EVANGELISTA PESSOA PIERROT       RUA DO ESPINHEIRO      APT. 2101     195ESPINHEIRO  52025020RECIFE         PE  01010000000000000000000000000000000000   000162
10210847762001315924800257892    00000011000000000000001424198014241980000000000000109                     I01000233489005111800000001580503410000001N181018940000000000000480511180000000000000000000000000000000000000000100004150348413MILENA LINS DE CERQUEIRA PORTO          ESTRADA DO ENCANAMENTO APTO 1201     608CASA FORTE  52007000RECIFE         PE  01010000000000000000000000000000000000   000163
10210847762001315924800257892    00000011000000000000001424199014241990000000000000109                     I01000233489105111800000001580503410000001N181018940000000000000480511180000000000000000000000000000000000000000100005557888497RODRIGO PIRES RIBEIRO                   MONSENHOR SILVA        APTO 401      209MADALENA    50610360RECIFE         PE  01010000000000000000000000000000000000   000164
10210847762001315924800257892    00000011000000000000001424200014242000000000000000109                     I01000233489205111800000001580503410000001N181018940000000000000480511180000000000000000000000000000000000000000200026495380828LUIZ EDUARDO PAIVA RIBEIRO              RUA ARLINDO GOUVEIA    APTO 1902 B   145MADALENA    50720595RECIFE         PE  01010000000000000000000000000000000000   000165
10210847762001315924800257892    00000011000000000000001424201014242010000000000000109                     I01000233489305111800000001580503410000001N181018940000000000000480511180000000000000000000000000000000000000000200088094162449ANDRE CASTELO BRANCO ALVES TORRES       RUA SAO SALVADOR       AP 1601        60ESPINHEIRO  52020200RECIFE         PE  01010000000000000000000000000000000000   000166
10210847762001315924800257892    00000011000000000000001424202014242020000000000000109                     I01000233489412111800000001580503410000001N181018940000000000000481211180000000000000000000000000000000000000000100005741267408CATARINA CABRAL TENORIO DOMINGUES       RUA CONSELHEIRO PORTELAAPTO 601      139ESPINHEIRO  52020212RECIFE         PE  01010000000000000000000000000000000000   000167
10210847762001315924800257892    00000011000000000000001424203014242030000000000000109                     I01000233489505111800000001580503410000001N181018940000000000000480511180000000000000000000000000000000000000000100000926793403PRISCILA NOTARO CAVALCANTI DE MELO      RUA DOUTOR JOSE MARIA  AP 802        658ENCRUZILHADA52041015RECIFE         PE  01010000000000000000000000000000000000   000168
10210847762001315924800257892    00000011000000000000001424204014242040000000000000109                     I01000233489605111800000001580503410000001N181018940000000000000480511180000000000000000000000000000000000000000100003945591422SERCIO FLAVNY BRANDAO DE MENEZES CORREIARUA MARECHAL RONDON    APTO 402      120CASA FORTE  52061055RECIFE         PE  01010000000000000000000000000000000000   000169
10210847762001315924800257892    00000011000000000000001424205014242050000000000000109                     I01000233489705111800000001580503410000001N181018940000000000000480511180000000000000000000000000000000000000000100001475942605FLAVIA MARIS DUARTE SOARES              RUA ENGENHEIRO SAMPAIO,APTO 2001      59ROSARINHO   52041020RECIFE         PE  01010000000000000000000000000000000000   000170
10210847762001315924800257892    00000011000000000000001424206014242060000000000000109                     I01000233489805111800000001580503410000001N181018940000000000000480511180000000000000000000000000000000000000000100090553683420PEDRO ANDRE CARVALHO ROSAS              RUA OCIDENTE                         600BONSUCESSO  53240101OLINDA         PE  01010000000000000000000000000000000000   000171
10210847762001315924800257892    00000011000000000000001424207014242070000000000000109                     I01000233489905111800000001580503410000001N181018940000000000000480511180000000000000000000000000000000000000000200026495380828LUIZ EDUARDO PAIVA RIBEIRO              RUA ARLINDO GOUVEIA    APTO 1902 B   145MADALENA    50720595RECIFE         PE  01010000000000000000000000000000000000   000172
10210847762001315924800257892    00000011000000000000001424208014242080000000000000109                     I01000233490005111800000001580503410000001N181018940000000000000480511180000000000000000000000000000000000000000100002638379476FELICIANO LYRA MOURA                    RUA TELES JUNIOR       APT 602       350ROSARINHO   52050505RECIFE         PE  01010000000000000000000000000000000000   000173
10210847762001315924800257892    00000011000000000000001424209014242090000000000000109                     I01000233490105111800000001580503410000001N181018940000000000000480511180000000000000000000000000000000000000000100003934811400LUANA CAMAROTTI MENEZES BREDERODE ACIOLIRUA QUARENTA E OITO    703           208ESPINHEIRO  52020060RECIFE         PE  01010000000000000000000000000000000000   000174
10210847762001315924800257892    00000011000000000000001424210014242100000000000000109                     I01000233490205111800000001580503410000001N181018940000000000000480511180000000000000000000000000000000000000000200000896960420TATIANA FERNANDES DOS SANTOS            RUA DO FUTURO          APT1002      1385JAQUEIRA    52050660RECIFE         PE  01010000000000000000000000000000000000   000175
10210847762001315924800257892    00000011000000000000001424211014242110000000000000109                     I01000233490305111800000001580503410000001N181018940000000000000480511180000000000000000000000000000000000000000200000896960420TATIANA FERNANDES DOS SANTOS            RUA DO FUTURO          APT1002      1385JAQUEIRA    52050660RECIFE         PE  01010000000000000000000000000000000000   000176
10210847762001315924800257892    00000011000000000000001424212014242120000000000000109                     I01000233490405111800000001580503410000001N181018940000000000000480511180000000000000000000000000000000000000000100078321816487EDUARDO RANIERE PESSOA DE AQUINO        DOM SEBASTIAO LEME     APT 501       140GRACAS      52011160RECIFE         PE  01010000000000000000000000000000000000   000177
10210847762001315924800257892    00000011000000000000001424213014242130000000000000109                     I01000233490505111800000001580503410000001N181018940000000000000480511180000000000000000000000000000000000000000100019746733400MARIA BEATRIZ MARTINS SWENSON           RUA DR RAUL LAFAYETTE  APTO 310      122BOA VIAGEM  51021220RECIFE         PE  01010000000000000000000000000000000000   000178
10210847762001315924800257892    00000011000000000000001424214014242140000000000000109                     I01000233490605111800000001580503410000001N181018940000000000000480511180000000000000000000000000000000000000000100003419275463TOMAZ CHRISTIANO DE ALBUQUERQUE GOMES   PRACA DE CASA FORTE    APT 1402      317CASA FORTE  52061420RECIFE         PE  01010000000000000000000000000000000000   000179
10210847762001315924800257892    00000011000000000000001424215014242150000000000000109                     I01000233490705111800000001580503410000001N181018940000000000000480511180000000000000000000000000000000000000000200008432750492PRISCILLA GOMES LINS                    RUA ARNOLDO MAGALHAES  502            22CASA AMARELA52051280RECIFE         PE  01010000000000000000000000000000000000   000180
10210847762001315924800257892    00000011000000000000001424216014242160000000000000109                     I01000233490805111800000001580503410000001N181018940000000000000480511180000000000000000000000000000000000000000200003879407401MARIA LIGIA PRIORI BARBOSA TAVARES DE SARUA SERRITA            APTO. 1101     55JAQUEIRA    52050091RECIFE         PE  01010000000000000000000000000000000000   000181
10210847762001315924800257892    00000011000000000000001424217014242170000000000000109                     I01000233490905111800000001580503410000001N181018940000000000000480511180000000000000000000000000000000000000000200077012810378NELSON STUDART ROCHA                    AVENIDA DOUTOR MALAQUIA202           195GRACAS      52050060RECIFE         PE  01010000000000000000000000000000000000   000182
10210847762001315924800257892    00000011000000000000001424218014242180000000000000109                     I01000233491005111800000001580503410000001N181018940000000000000480511180000000000000000000000000000000000000000200002086973497RUDRIGO DE MELO MACIEL                  ESTRADA DE ALDEIA KM 13LOTE 224    11971ALDEIA      54783010CAMARAGIBE     PE  01010000000000000000000000000000000000   000183
10210847762001315924800257892    00000011000000000000001424219014242190000000000000109                     I01000233491112111800000001580503410000001N181018940000000000000481211180000000000000000000000000000000000000000100005741267408CATARINA CABRAL TENORIO DOMINGUES       RUA CONSELHEIRO PORTELAAPTO 601      139ESPINHEIRO  52020212RECIFE         PE  01010000000000000000000000000000000000   000184
10210847762001315924800257892    00000011000000000000001424220014242200000000000000109                     I01000233491205111800000001650263410000001N181018940000000000000500511180000000000000000000000000000000000000000200003457410488ADRIANO LEONARDO DE OLIVEIRA FILGUEIRA GRUA ENGENHEIRO SAMPAIO APTO 2802A     59ROSARINHO   52041020RECIFE         PE  01010000000000000000000000000000000000   000185
10210847762001315924800257892    00000011000000000000001424221014242210000000000000109                     I01000233491305111800000001650263410000001N181018940000000000000500511180000000000000000000000000000000000000000100000228138450ANDERSON BARROS DA SILVA                RUA OUREM              APTO 703 - F  227SAN MARTIN  50761340RECIFE         PE  01010000000000000000000000000000000000   000186
10210847762001315924800257892    00000011000000000000001424222014242220000000000000109                     I01000233491405111800000001580503410000001N181018940000000000000480511180000000000000000000000000000000000000000100002285894449CARLOS ALBERTO CAVALCANTI MARTINS       AVENIDA CONSELHEIRO ROS602          1438AFLITOS     52020220RECIFE         PE  01010000000000000000000000000000000000   000187
10210847762001315924800257892    00000011000000000000001424223014242230000000000000109                     I01000233491505111800000001580503410000001N181018940000000000000480511180000000000000000000000000000000000000000100061607096404SANDRA VERONICA FREITAS BRADLEY         RUA ALFREDO DE MEDEIROSAPT 106       130ESPINHEIRO  52021030RECIFE         PE  01010000000000000000000000000000000000   000188
10210847762001315924800257892    00000011000000000000001424224014242240000000000000109                     I01000233491605111800000001580503410000001N181018940000000000000480511180000000000000000000000000000000000000000100003016941414JOSE GERMANO DA SILVA JUNIOR            RUA DO ESPINHEIRO      602           186ESPINHEIRO  52020020RECIFE         PE  01010000000000000000000000000000000000   000189
10210847762001315924800257892    00000011000000000000001424225014242250000000000000109                     I01000233491705111800000001580503410000001N181018940000000000000480511180000000000000000000000000000000000000000200002821773455JOSE PAULO GONCALVES DE OLIVEIRA        RUA ESTRELA            APT 1502      203PARNAMIRIM  50606160RECIFE         PE  01010000000000000000000000000000000000   000190
10210847762001315924800257892    00000011000000000000001424226014242260000000000000109                     I01000233491805111800000001580503410000001N181018940000000000000480511180000000000000000000000000000000000000000100003996758413JOAO HENRIQUE PINHEIRO DE AMORIM        RUA IRMA MARIA DAVID   APT 1202      210CASA FORTE  52061070RECIFE         PE  01010000000000000000000000000000000000   000191
10210847762001315924800257892    00000011000000000000001424227014242270000000000000109                     I01000233491905111800000001580503410000001N181018940000000000000480511180000000000000000000000000000000000000000200001348597402AMANDA CAVALCANTI DOS SANTOS            RUA CASSILANDIA                      108VARZEA      50740370RECIFE         PE  01010000000000000000000000000000000000   000192
10210847762001315924800257892    00000011000000000000001424228014242280000000000000109                     I01000233492005111800000001580503410000001N181018940000000000000480511180000000000000000000000000000000000000000100089029259434MARCELO NERY RIBEIRO                    RUA ARLINDO GOUVEIA    APTO 3501     175MADALENA    50720595RECIFE         PE  01010000000000000000000000000000000000   000193
10210847762001315924800257892    00000011000000000000001424229014242290000000000000109                     I01000233492105111800000001580503410000001N181018940000000000000480511180000000000000000000000000000000000000000200003187242430RAFAEL BEZERRA DE PAIVA                 ESTRADA DAS UBAIAS     APTO 1202     195CASA FORTE  52061080RECIFE         PE  01010000000000000000000000000000000000   000194
10210847762001315924800257892    00000011000000000000001424230014242300000000000000109                     I01000233492205111800000001580503410000001N181018940000000000000480511180000000000000000000000000000000000000000100000232760616ANTONELLA SARAIVA LANNA                 RUA ABRAHAM LINCOLN    APT 1001      111PARNAMIRIM  52060190RECIFE         PE  01010000000000000000000000000000000000   000195
10210847762001315924800257892    00000011000000000000001424231014242310000000000000109                     I01000233492305111800000001580503410000001N181018940000000000000480511180000000000000000000000000000000000000000200004329107430BRUNO JOSE PEIXOTO COUTINHO             RUA ALTINHO            APTO 102       70MADALENA    50610140RECIFE         PE  01010000000000000000000000000000000000   000196
10210847762001315924800257892    00000011000000000000001424232014242320000000000000109                     I01000233492405111800000001580503410000001N181018940000000000000480511180000000000000000000000000000000000000000100041540255468ALDO FERNANDES DE ALBUQUERQUE BEZERRA JURUA JANUARIO BARBOSA 161601          160MADALENA    50610060RECIFE         PE  01010000000000000000000000000000000000   000197
10210847762001315924800257892    00000011000000000000001424233014242330000000000000109                     I01000233492505111800000001580503410000001N181018940000000000000480511180000000000000000000000000000000000000000200029837511800LUIS EDUARDO TRINDADE GREGIO            ESTRADA DAS UBAIAS     APTO 1301     685CASA FORTE  52061080RECIFE         PE  01010000000000000000000000000000000000   000198
10210847762001315924800257892    00000011000000000000001424234014242340000000000000109                     I01000233492605111800000001580503410000001N181018940000000000000480511180000000000000000000000000000000000000000100078250439449LEONARDO DE FIGUEIREDO NEGROMONTE       RUA GENERAL ABREU E LIMAP 101        144ROSARINHO   52041040RECIFE         PE  01010000000000000000000000000000000000   000199
10210847762001315924800257892    00000011000000000000001424235014242350000000000000109                     I01000233492705111800000001580503410000001N181018940000000000000480511180000000000000000000000000000000000000000100083282882491RODRIGO DE HOLANDA CARVALHO             AV MONTEIRO LOBATO     APT 902       538TAMBAU      58039170JOAO PESSOA    PB  01010000000000000000000000000000000000   000200
10210847762001315924800257892    00000011000000000000001424236014242360000000000000109                     I01000233492805111800000001580503410000001N181018940000000000000480511180000000000000000000000000000000000000000100002543683445RENATA FARACHE DE LIMA                  RUA ESTRELA            APTO 1501     105PARNAMIRIM  52060165RECIFE         PE  01010000000000000000000000000000000000   000201
10210847762001315924800257892    00000011000000000000001424237014242370000000000000109                     I01000233492905111800000001580503410000001N181018940000000000000480511180000000000000000000000000000000000000000100004295104469BRUNA SPINELLI DE SOUZA CARVALHO        RUA GERVASIO FIORAVANTEAPT 1201       92GRACAS      52011030RECIFE         PE  01010000000000000000000000000000000000   000202
10210847762001315924800257892    00000011000000000000001424238014242380000000000000109                     I01000233493005111800000001580503410000001N181018940000000000000480511180000000000000000000000000000000000000000100077376579400PRISCILA KRAUSE BRANCO                  RUA PADRE ROMA         APTO 1701     489PARNAMIRIM  52060060RECIFE         PE  01010000000000000000000000000000000000   000203
10210847762001315924800257892    00000011000000000000001424239014242390000000000000109                     I01000233493105111800000001580503410000001N181018940000000000000480511180000000000000000000000000000000000000000100068341849453SAULO DUARTE FEITOSA GOMES              RUA VENEZUELA          APT 1202      100ESPINHEIRO  52020170RECIFE         PE  01010000000000000000000000000000000000   000204
10210847762001315924800257892    00000011000000000000001424240014242400000000000000109                     I01000233493205111800000001580503410000001N181018940000000000000480511180000000000000000000000000000000000000000100087969068472CRISTINA DE PAULA QUIRINO MELLO         RUA NETO CAMPELO       APT 2801       70TORRE       50710450RECIFE         PE  01010000000000000000000000000000000000   000205
10210847762001315924800257892    00000011000000000000001424241014242410000000000000109                     I01000233493305111800000001580503410000001N181018940000000000000480511180000000000000000000000000000000000000000100090820061468MARTHA MARILIA SOBRAL PERNAMBUCANO      RUA PADRE ROMA         APT 2001      489PARNAMIRIM  52060060RECIFE         PE  01010000000000000000000000000000000000   000206
10210847762001315924800257892    00000011000000000000001424242014242420000000000000109                     I01000233493405111800000001580503410000001N181018940000000000000480511180000000000000000000000000000000000000000100000232760616ANTONELLA SARAIVA LANNA                 RUA ABRAHAM LINCOLN    APT 1001      111PARNAMIRIM  52060190RECIFE         PE  01010000000000000000000000000000000000   000207
10210847762001315924800257892    00000011000000000000001424243014242430000000000000109                     I01000233493505111800000001580503410000001N181018940000000000000480511180000000000000000000000000000000000000000100033446830120ANDRE VICENTE PIRES ROSA                AV. 17 DE AGOSTO       APT 2702     2483CASA FORTE  52061540RECIFE         PE  01010000000000000000000000000000000000   000208
10210847762001315924800257892    00000011000000000000001424244014242440000000000000109                     I01000233493605111800000001580503410000001N181018940000000000000480511180000000000000000000000000000000000000000100000751566446JOSE DIOGENES CEZAR DE SOUZA JUNIOR     RUA CASA FORTE         401            65CASA FORTE  52061460RECIFE         PE  01010000000000000000000000000000000000   000209
10210847762001315924800257892    00000011000000000000001424245014242450000000000000109                     I01000233493705111800000001580503410000001N181018940000000000000480511180000000000000000000000000000000000000000100002101321408JOSE PEDRO DE QUEIROZ FIGUEIREDO JUNIOR RUA AMARAJI            APT 901        80SANTANA     52060440RECIFE         PE  01010000000000000000000000000000000000   000210
10210847762001315924800257892    00000011000000000000001424246014242460000000000000109                     I01000233493805111800000001580503410000001N181018940000000000000480511180000000000000000000000000000000000000000100038740311449MARIA FRANCISCA DIAS DE ARAUJO BELTRAO  AV DEZESSETE DE AGOSTO CASA 14      1176CASA FORTE  52060590RECIFE         PE  01010000000000000000000000000000000000   000211
10210847762001315924800257892    00000011000000000000001424247014242470000000000000109                     I01000233493905111800000001580503410000001N181018940000000000000480511180000000000000000000000000000000000000000100005447607434FRANCISCO NEVES DOS SANTOS              RUA RODRIGUES DE MENDONAPT 204        31PRADO       50720170RECIFE         PE  01010000000000000000000000000000000000   000212
10210847762001315924800257892    00000011000000000000001424248014242480000000000000109                     I01000233494005111800000001580503410000001N181018940000000000000480511180000000000000000000000000000000000000000100077376579400PRISCILA KRAUSE BRANCO                  RUA PADRE ROMA         APTO 1701     489PARNAMIRIM  52060060RECIFE         PE  01010000000000000000000000000000000000   000213
10210847762001315924800257892    00000011000000000000001424250014242500000000000000109                     I01000233494205111800000001580503410000001N181018940000000000000480511180000000000000000000000000000000000000000100088769968420ANDREA DA FONTE MACIEL BRAGA            RUA IBIAPABA           APTO 301 A     90TAMARINEIRA 52051100RECIFE         PE  01010000000000000000000000000000000000   000214
10210847762001315924800257892    00000011000000000000001424251014242510000000000000109                     I01000233494305111800000001580503410000001N181018940000000000000480511180000000000000000000000000000000000000000100090729196453RICARDO CORDEIRO DO NASCIMENTO          RUA IRMA MARIA DAVID   APTO 1602     200CASA FORTE  52061070RECIFE         PE  01010000000000000000000000000000000000   000215
10210847762001315924800257892    00000011000000000000001424252014242520000000000000109                     I01000233494405111800000001580503410000001N181018940000000000000480511180000000000000000000000000000000000000000100016647746889RENATA MARIA PONTES CHAVES              AVENIDA CONSELHEIRO ROSAPTO 201      707GRACAS      52050225RECIFE         PE  01010000000000000000000000000000000000   000216
10210847762001315924800257892    00000011000000000000001424253014242530000000000000109                     I01000233494505111800000001580503410000001N181018940000000000000480511180000000000000000000000000000000000000000200090859820491TASSIANA LEITE PERAZZO                  RUA PESSOA DE MELO     APTO 1402      85MADALENA    50610220RECIFE         PE  01010000000000000000000000000000000000   000217
10210847762001315924800257892    00000011000000000000001424254014242540000000000000109                     I01000233494605111800000001580503410000001N181018940000000000000480511180000000000000000000000000000000000000000100089058763404EIMAR CAVALCANTI DE MORAIS FILHO        AVENIDA 17 DE AGOSTO   APT 1302     2720MONTEIRO    52061540RECIFE         PE  01010000000000000000000000000000000000   000218
10210847762001315924800257892    00000011000000000000001424255014242550000000000000109                     I01000233494705111800000001639003410000001N181018940000000000000490511180000000000000000000000000000000000000000100004295104469BRUNA SPINELLI DE SOUZA CARVALHO        RUA GERVASIO FIORAVANTEAPT 1201       92GRACAS      52011030RECIFE         PE  01010000000000000000000000000000000000   000219
10210847762001315924800257892    00000011000000000000001424256014242560000000000000109                     I01000233494805111800000001639003410000001N181018940000000000000490511180000000000000000000000000000000000000000100002499763400ARLINDO DOS SANTOS MACIEL NETO          RUA CAIO PEREIRA       APT 301       334ROSARINHO   52041045RECIFE         PE  01010000000000000000000000000000000000   000220
10210847762001315924800257892    00000011000000000000001424257014242570000000000000109                     I01000233494905111800000001639003410000001N181018940000000000000490511180000000000000000000000000000000000000000100083282882491RODRIGO DE HOLANDA CARVALHO             AV MONTEIRO LOBATO     APT 902       538TAMBAU      58039170JOAO PESSOA    PB  01010000000000000000000000000000000000   000221
10210847762001315924800257892    00000011000000000000001424258014242580000000000000109                     I01000233495005111800000001639003410000001N181018940000000000000490511180000000000000000000000000000000000000000100002448910448HELENA MARIA MACHADO LUNDGREN RABELO    RUA GENERAL ABREU E LIMAPTO 302       87ROSARINHO   52041040RECIFE         PE  01010000000000000000000000000000000000   000222
10210847762001315924800257892    00000011000000000000001424259014242590000000000000109                     I01000233495105111800000001639003410000001N181018940000000000000490511180000000000000000000000000000000000000000100003259761470TELMO ESPEDITO DA ROCHA BARROS FILHO    RUA MONSENHOR SILVA    APT 102       223MADALENA    50610360RECIFE         PE  01010000000000000000000000000000000000   000223
10210847762001315924800257892    00000011000000000000001424260014242600000000000000109                     I01000233495205111800000001695003410000001N181018940000000000000510511180000000000000000000000000000000000000000200096226706449ANA PAULA ALVES FIGUEIREDO LIMA         RUA DOS MARQUES        APT 901        80PARNAMIRIM  52060280RECIFE         PE  01010000000000000000000000000000000000   000224
10210847762001315924800257892    00000011000000000000001424261014242610000000000000109                     I01000233495305111800000001695003410000001N181018940000000000000510511180000000000000000000000000000000000000000100065261577420GILBERTO NOGUEIRA GOMES                 R BIANOR DE MEDEIROS   APTO 502       35POCO DA PANE52061120RECIFE         PE  01010000000000000000000000000000000000   000225
10210847762001315924800257892    00000011000000000000001424262014242620000000000000109                     I01000233495405111800000001695003410000001N181018940000000000000510511180000000000000000000000000000000000000000100077222717404JOSE MARIO PESSOA BARRETO CAVALCANTI    RUA EVARISTO DA VEIGA  APT 2201      255CASA AMARELA52070100RECIFE         PE  01010000000000000000000000000000000000   000226
10210847762001315924800257892    00000011000000000000001424263014242630000000000000109                     I01000233495505111800000001720003410000001N181018940000000000000520511180000000000000000000000000000000000000000100083445994404VLADIMIR LACERDA MELQUIADES             RUA PESSOA DE MELO     APTO 1801      65MADALENA    50610220RECIFE         PE  01010000000000000000000000000000000000   000227
10210847762001315924800257892    00000011000000000000001424264014242640000000000000109                     I01000233495605111800000001720003410000001N181018940000000000000520511180000000000000000000000000000000000000000100000746803400MARIZA MOTA ALPES                       MARIA  JABOATAO        APT 502        70VARZEA      50740360RECIFE         PE  01010000000000000000000000000000000000   000228
10210847762001315924800257892    00000011000000000000001424265014242650000000000000109                     I01000233495705111800000001720003410000001N181018940000000000000520511180000000000000000000000000000000000000000100036349534468REJANE FERRAZ MENDES                    RUA AMARO BEZERRA      ED.FICUS      458DERBY       52010150RECIFE         PE  01010000000000000000000000000000000000   000229
10210847762001315924800257892    00000011000000000000001424266014242660000000000000109                     I01000233495805111800000001720003410000001N181018940000000000000520511180000000000000000000000000000000000000000100002159101419ENOQUE SALVADOR DE ARAUJO SOBRINHO      RUA MARCOS MACEDO                   1301ALDEOTA     60150190FORTALEZA      CE  01010000000000000000000000000000000000   000230
10210847762001315924800257892    00000011000000000000001424267014242670000000000000109                     I01000233495905111800000001580503410000001N181018940000000000000480511180000000000000000000000000000000000000000200003149708435MARIA RAQUEL ESTELITA LAFAYETTE DE PAULARUA GUILHERME SALAZAR  APTO  502     151POCO DA PANE52061275RECIFE         PE  01010000000000000000000000000000000000   000231
10210847762001315924800257892    00000011000000000000001424268014242680000000000000109                     I01000233496005111800000001580503410000001N181018940000000000000480511180000000000000000000000000000000000000000100088769968420ANDREA DA FONTE MACIEL BRAGA            RUA IBIAPABA           APTO 301 A     90TAMARINEIRA 52051100RECIFE         PE  01010000000000000000000000000000000000   000232
10210847762001315924800257892    00000011000000000000001424269014242690000000000000109                     I01000233496105111800000001580503410000001N181018940000000000000480511180000000000000000000000000000000000000000100003660336467CARLOS HENRIQUE JOSE PEREIRA CUNHA      RUA DO FONSECA         APTO 1401     279ILHA DO RETI50750290RECIFE         PE  01010000000000000000000000000000000000   000233
10210847762001315924800257892    00000011000000000000001424270014242700000000000000109                     I01000233496205111800000001580503410000001N181018940000000000000480511180000000000000000000000000000000000000000200005266178450FERNANDO MAGALHAES ALBUQUERQUE DE ALMEIDRUA DEMOCRITO DE SOUZA APTO  602     156MADALENA    50610120RECIFE         PE  01010000000000000000000000000000000000   000234
10210847762001315924800257892    00000011000000000000001424271014242710000000000000109                     I01000233496305111800000001580503410000001N181018940000000000000480511180000000000000000000000000000000000000000200002638352438FABIO JOSE NUNES RODRIGUES              RUA JOSE DE HOLANDA    APT 602       425TORRE       50710140RECIFE         PE  01010000000000000000000000000000000000   000235
10210847762001315924800257892    00000011000000000000001424272014242720000000000000109                     I01000233496405111800000001580503410000001N181018940000000000000480511180000000000000000000000000000000000000000200002158649488EDUARDO HENRIQUE CARVALHO BARROS        RUA DR OSVALDO SALSA   APTO 1401     100GRACAS      52011170RECIFE         PE  01010000000000000000000000000000000000   000236
10210847762001315924800257892    00000011000000000000001424273014242730000000000000109                     I01000233496505111800000001580503410000001N181018940000000000000480511180000000000000000000000000000000000000000200002953549412CARLOS ROBERTO SOARES DA SILVA JUNIOR   RUA CARDEAL ARCOVERDE  APTO 801 A     85GRACAS      52011240RECIFE         PE  01010000000000000000000000000000000000   000237
10210847762001315924800257892    00000011000000000000001424274014242740000000000000109                     I01000233496605111800000001580503410000001N181018940000000000000480511180000000000000000000000000000000000000000200003567844440CLEBER MACIEL DE MORAES PRAZERES        RUA DOM SEBASTIAO LEME APTO 2101     140GRACAS      52011160RECIFE         PE  01010000000000000000000000000000000000   000238
10210847762001315924800257892    00000011000000000000001424275014242750000000000000109                     I01000233496705111800000001580503410000001N181018940000000000000480511180000000000000000000000000000000000000000100009159657472MARIA DO SOCORRO MARINHO ALVES DE CARVALJOSE HIGINO            APTO 102      221MADALENA    50610340RECIFE         PE  01010000000000000000000000000000000000   000239
10210847762001315924800257892    00000011000000000000001424276014242760000000000000109                     I01000233496805111800000001580503410000001N181018940000000000000480511180000000000000000000000000000000000000000100009263011443IGOR JOSE DE OLIVEIRA SOUZA             RUA JORGE DE ALBUQUERQUAPTO 1301      31POCO DA PANE52061100RECIFE         PE  01010000000000000000000000000000000000   000240
10210847762001315924800257892    00000011000000000000001424277014242770000000000000109                     I01000233496905111800000001650263410000001N181018940000000000000500511180000000000000000000000000000000000000000100007957225403ANDREA FREITAS MELO DOMINGUES           AV MINISTRO MARCOS FREIAPTO 1003    2621CADA CAIADA 53130540OLINDA         PE  01010000000000000000000000000000000000   000241
10210847762001315924800257892    00000011000000000000001424278014242780000000000000109                     I01000233497005111800000001580503410000001N181018940000000000000480511180000000000000000000000000000000000000000100002567356460MARCIA ROBERTA ALVES DA GAMA ANDRADE    AVENIDA FLOR DE SANTANA502           189PARNAMIRIM  52060290RECIFE         PE  01010000000000000000000000000000000000   000242
10210847762001315924800257892    00000011000000000000001424279014242790000000000000109                     I01000233497105111800000001580503410000001N181018940000000000000480511180000000000000000000000000000000000000000100003323136462RENATA DE ARRUDA SARMENTO BARBOSA       RUA SERGIO MAGALHAES   APTO 2101      65GRACAS      52050270RECIFE         PE  01010000000000000000000000000000000000   000243
10210847762001315924800257892    00000011000000000000001424280014242800000000000000109                     I01000233497205111800000001580503410000001N181018940000000000000480511180000000000000000000000000000000000000000100002794076450ULISSES DIAS DE CARVALHO                RUA TAPACURA           APTO  402-D    75POCO        52061140RECIFE         PE  01010000000000000000000000000000000000   000244
10210847762001315924800257892    00000011000000000000001424281014242810000000000000109                     I01000233497305111800000002090003410000001N181018940000000000000630511180000000000000000000000000000000000000000100012615941852CLAUDIA CRISTINA DURAN MARTIN DOMINGUES RUA NETO CAMPELO       APTO 1801      70TORRE       51710450RECIFE         PE  01010000000000000000000000000000000000   000245
10210847762001315924800257892    00000011000000000000001424282014242820000000000000109                     I01000233497405111800000001580503410000001N181018940000000000000480511180000000000000000000000000000000000000000200035192321468PAULO JOSE FERNANDES                    RUA MARCOS ANDRE 200   APTO 702      200TORRE       50710050RECIFE         PE  01010000000000000000000000000000000000   000246
10210847762001315924800257892    00000011000000000000001424283014242830000000000000109                     I01000233497505111800000001639003410000001N181018940000000000000490511180000000024585000000000000000000000000000100002390162460RENATA VISGUEIRO GOMES UCHOA            RUA CAPITAO SAMPAIO XAVAPTO 101      285GRACAS      52050210RECIFE         PE  01010000000000000000000000000000000000   000247
10210847762001315924800257892    00000011000000000000001424284014242840000000000000109                     I01000233497605111800000001639003410000001N181018940000000000000490511180000000032780000000000000000000000000000200005893200411THALES JOAQUIM ALVES TIMOTEO            RUA RODRIGUES SETE     APTO 101       91CASA AMARELA52051230RECIFE         PE  01010000000000000000000000000000000000   000248
10210847762001315924800257892    00000011000000000000001424285014242850000000000000109                     I01000233497705111800000001580503410000001N181018940000000000000480511180000000000000000000000000000000000000000100002546832409MARILIA BORBA EGIZI LEAL                RUA JOAQUIM COUTINHO                 165CENTRO      55620000GLORIA DO GOITAPE  01010000000000000000000000000000000000   000249
